{"contracts/DODOFlashloan.sol":{"DODOFlashloan":{"abi":[{"anonymous":false,"inputs":[{"indexed":false,"internalType":"address","name":"token","type":"address"},{"indexed":false,"internalType":"uint256","name":"amount","type":"uint256"}],"name":"checkBorrowedAmount","type":"event"},{"anonymous":false,"inputs":[{"indexed":false,"internalType":"address","name":"token","type":"address"},{"indexed":false,"internalType":"uint256","name":"amount","type":"uint256"}],"name":"payBackLoan","type":"event"},{"inputs":[{"internalType":"address","name":"sender","type":"address"},{"internalType":"uint256","name":"baseAmount","type":"uint256"},{"internalType":"uint256","name":"quoteAmount","type":"uint256"},{"internalType":"bytes","name":"data","type":"bytes"}],"name":"DPPFlashLoanCall","outputs":[],"stateMutability":"nonpayable","type":"function"},{"inputs":[{"internalType":"address","name":"sender","type":"address"},{"internalType":"uint256","name":"baseAmount","type":"uint256"},{"internalType":"uint256","name":"quoteAmount","type":"uint256"},{"internalType":"bytes","name":"data","type":"bytes"}],"name":"DSPFlashLoanCall","outputs":[],"stateMutability":"nonpayable","type":"function"},{"inputs":[{"internalType":"address","name":"sender","type":"address"},{"internalType":"uint256","name":"baseAmount","type":"uint256"},{"internalType":"uint256","name":"quoteAmount","type":"uint256"},{"internalType":"bytes","name":"data","type":"bytes"}],"name":"DVMFlashLoanCall","outputs":[],"stateMutability":"nonpayable","type":"function"},{"inputs":[{"internalType":"address","name":"flashLoanPool","type":"address"},{"internalType":"uint256","name":"loanAmount","type":"uint256"},{"internalType":"address","name":"loanToken","type":"address"}],"name":"dodoFlashLoan","outputs":[],"stateMutability":"nonpayable","type":"function"}],"evm":{"bytecode":{"linkReferences":{},"object":"608060405234801561001057600080fd5b50610af4806100206000396000f3fe608060405234801561001057600080fd5b506004361061004c5760003560e01c80637ed1f1dd14610051578063d5b9979714610051578063eb2021c314610051578063ed97c93814610066575b600080fd5b61006461005f366004610785565b610079565b005b610064610074366004610742565b61008d565b610086858585858561021a565b5050505050565b60008382846040516020016100a49392919061089d565b60405160208183030381529060405290506000846001600160a01b0316634a248d2a6040518163ffffffff1660e01b815260040160206040518083038186803b1580156100f057600080fd5b505afa158015610104573d6000803e3d6000fd5b505050506040513d601f19601f8201168201806040525081019061012891906106cf565b9050826001600160a01b0316816001600160a01b031614156101ae57604051633429253960e21b81526001600160a01b0386169063d0a494e490610177908790600090309088906004016109ee565b600060405180830381600087803b15801561019157600080fd5b505af11580156101a5573d6000803e3d6000fd5b50505050610086565b604051633429253960e21b81526001600160a01b0386169063d0a494e4906101e1906000908890309088906004016108e7565b600060405180830381600087803b1580156101fb57600080fd5b505af115801561020f573d6000803e3d6000fd5b505050505050505050565b6000808061022a848601866106f5565b919450925090506001600160a01b038816301480156102515750336001600160a01b038416145b6102765760405162461bcd60e51b815260040161026d906109bd565b60405180910390fd5b6040516370a0823160e01b8152610331906001600160a01b038416906370a08231906102a690309060040161088f565b60206040518083038186803b1580156102be57600080fd5b505afa1580156102d2573d6000803e3d6000fd5b505050506040513d601f19601f820116820180604052508101906102f69190610821565b6040518060400160405280601b81526020017f7468697320616d6f756e7420206861766520746f2072657475726e0000000000815250610554565b6040516370a0823160e01b81526001600160a01b038316906370a082319061035d90309060040161088f565b60206040518083038186803b15801561037557600080fd5b505afa158015610389573d6000803e3d6000fd5b505050506040513d601f19601f820116820180604052508101906103ad9190610821565b81146103cb5760405162461bcd60e51b815260040161026d9061095c565b7f3a227357a857ce0c0e91741d8eccc8993feba4b2722acb7260125b30ce21413682826040516103fc9291906108c5565b60405180910390a1670de0b6b3a76400008111156104525760408051808201909152600c81526b165bdd48189bdc9c9bddd95960a21b60208201526104529061044d670de0b6b3a764000084610a29565b61059d565b60405163a9059cbb60e01b81526001600160a01b0383169063a9059cbb9061048090869085906004016108c5565b602060405180830381600087803b15801561049a57600080fd5b505af11580156104ae573d6000803e3d6000fd5b505050506040513d601f19601f820116820180604052508101906104d29190610803565b507fdb1cb55863e8c14b76121e1c7a1dd384bbf404face056dcd7f4ed8d9daa716da82826040516105049291906108c5565b60405180910390a161054a6040518060400160405280601f81526020017f596f75207375636365737366756c6c792072657475726e6564206c6f616e21008152506105e2565b5050505050505050565b610599828260405160240161056a929190610a09565b60408051601f198184030181529190526020810180516001600160e01b031663643fd0df60e01b179052610628565b5050565b61059982826040516024016105b392919061093c565b60408051601f198184030181529190526020810180516001600160e01b0316632d839cb360e21b179052610628565b610625816040516024016105f6919061092b565b60408051601f198184030181529190526020810180516001600160e01b031663104c13eb60e21b179052610628565b50565b80516a636f6e736f6c652e6c6f67602083016000808483855afa5050505050565b803561065481610a9c565b92915050565b805161065481610a9c565b805161065481610ab0565b60008083601f84011261068257600080fd5b50813567ffffffffffffffff81111561069a57600080fd5b6020830191508360018202830111156106b257600080fd5b9250929050565b803561065481610ab8565b805161065481610ab8565b6000602082840312156106e157600080fd5b60006106ed848461065a565b949350505050565b60008060006060848603121561070a57600080fd5b60006107168686610649565b935050602061072786828701610649565b9250506040610738868287016106b9565b9150509250925092565b60008060006060848603121561075757600080fd5b60006107638686610649565b9350506020610774868287016106b9565b925050604061073886828701610649565b60008060008060006080868803121561079d57600080fd5b60006107a98888610649565b95505060206107ba888289016106b9565b94505060406107cb888289016106b9565b935050606086013567ffffffffffffffff8111156107e857600080fd5b6107f488828901610670565b92509250509295509295909350565b60006020828403121561081557600080fd5b60006106ed8484610665565b60006020828403121561083357600080fd5b60006106ed84846106c4565b61084881610a3d565b82525050565b6000610858825190565b80845260208401935061086f818560208601610a56565b601f01601f19169290920192915050565b61084881610a4e565b80610848565b60208101610654828461083f565b606081016108ab828661083f565b6108b8602083018561083f565b6106ed6040830184610889565b604081016108d3828561083f565b6108e06020830184610889565b9392505050565b608081016108f58287610880565b6109026020830186610889565b61090f604083018561083f565b8181036060830152610921818461084e565b9695505050505050565b602080825281016108e0818461084e565b6040808252810161094d818561084e565b90506108e06020830184610889565b6020808252810161065481603a81527f546865206c6f616e416d6f756e7420616e64207468652063757272656e74206260208201527f616c616e63652073686f756c64206265207468652073616d6521000000000000604082015260600190565b6020808252810161065481601381527212105391131157d1931054d217d39153925151606a1b602082015260400190565b608081016109fc8287610889565b6109026020830186610880565b60408101610a178285610889565b81810360208301526106ed818461084e565b600082610a3857610a38610a86565b500490565b60006001600160a01b038216610654565b600081610654565b60005b83811015610a71578181015183820152602001610a59565b83811115610a80576000848401525b50505050565b634e487b7160e01b600052601260045260246000fd5b610aa581610a3d565b811461062557600080fd5b801515610aa5565b80610aa556fea264697066735822122081765306a9757a5826c819924fb0b6975cec7f42489c6b8db2e5b4d2996293c064736f6c63430008040033","opcodes":"PUSH1 0x80 PUSH1 0x40 MSTORE CALLVALUE DUP1 ISZERO PUSH2 0x10 JUMPI PUSH1 0x0 DUP1 REVERT JUMPDEST POP PUSH2 0xAF4 DUP1 PUSH2 0x20 PUSH1 0x0 CODECOPY PUSH1 0x0 RETURN INVALID PUSH1 0x80 PUSH1 0x40 MSTORE CALLVALUE DUP1 ISZERO PUSH2 0x10 JUMPI PUSH1 0x0 DUP1 REVERT JUMPDEST POP PUSH1 0x4 CALLDATASIZE LT PUSH2 0x4C JUMPI PUSH1 0x0 CALLDATALOAD PUSH1 0xE0 SHR DUP1 PUSH4 0x7ED1F1DD EQ PUSH2 0x51 JUMPI DUP1 PUSH4 0xD5B99797 EQ PUSH2 0x51 JUMPI DUP1 PUSH4 0xEB2021C3 EQ PUSH2 0x51 JUMPI DUP1 PUSH4 0xED97C938 EQ PUSH2 0x66 JUMPI JUMPDEST PUSH1 0x0 DUP1 REVERT JUMPDEST PUSH2 0x64 PUSH2 0x5F CALLDATASIZE PUSH1 0x4 PUSH2 0x785 JUMP JUMPDEST PUSH2 0x79 JUMP JUMPDEST STOP JUMPDEST PUSH2 0x64 PUSH2 0x74 CALLDATASIZE PUSH1 0x4 PUSH2 0x742 JUMP JUMPDEST PUSH2 0x8D JUMP JUMPDEST PUSH2 0x86 DUP6 DUP6 DUP6 DUP6 DUP6 PUSH2 0x21A JUMP JUMPDEST POP POP POP POP POP JUMP JUMPDEST PUSH1 0x0 DUP4 DUP3 DUP5 PUSH1 0x40 MLOAD PUSH1 0x20 ADD PUSH2 0xA4 SWAP4 SWAP3 SWAP2 SWAP1 PUSH2 0x89D JUMP JUMPDEST PUSH1 0x40 MLOAD PUSH1 0x20 DUP2 DUP4 SUB SUB DUP2 MSTORE SWAP1 PUSH1 0x40 MSTORE SWAP1 POP PUSH1 0x0 DUP5 PUSH1 0x1 PUSH1 0x1 PUSH1 0xA0 SHL SUB AND PUSH4 0x4A248D2A PUSH1 0x40 MLOAD DUP2 PUSH4 0xFFFFFFFF AND PUSH1 0xE0 SHL DUP2 MSTORE PUSH1 0x4 ADD PUSH1 0x20 PUSH1 0x40 MLOAD DUP1 DUP4 SUB DUP2 DUP7 DUP1 EXTCODESIZE ISZERO DUP1 ISZERO PUSH2 0xF0 JUMPI PUSH1 0x0 DUP1 REVERT JUMPDEST POP GAS STATICCALL ISZERO DUP1 ISZERO PUSH2 0x104 JUMPI RETURNDATASIZE PUSH1 0x0 DUP1 RETURNDATACOPY RETURNDATASIZE PUSH1 0x0 REVERT JUMPDEST POP POP POP POP PUSH1 0x40 MLOAD RETURNDATASIZE PUSH1 0x1F NOT PUSH1 0x1F DUP3 ADD AND DUP3 ADD DUP1 PUSH1 0x40 MSTORE POP DUP2 ADD SWAP1 PUSH2 0x128 SWAP2 SWAP1 PUSH2 0x6CF JUMP JUMPDEST SWAP1 POP DUP3 PUSH1 0x1 PUSH1 0x1 PUSH1 0xA0 SHL SUB AND DUP2 PUSH1 0x1 PUSH1 0x1 PUSH1 0xA0 SHL SUB AND EQ ISZERO PUSH2 0x1AE JUMPI PUSH1 0x40 MLOAD PUSH4 0x34292539 PUSH1 0xE2 SHL DUP2 MSTORE PUSH1 0x1 PUSH1 0x1 PUSH1 0xA0 SHL SUB DUP7 AND SWAP1 PUSH4 0xD0A494E4 SWAP1 PUSH2 0x177 SWAP1 DUP8 SWAP1 PUSH1 0x0 SWAP1 ADDRESS SWAP1 DUP9 SWAP1 PUSH1 0x4 ADD PUSH2 0x9EE JUMP JUMPDEST PUSH1 0x0 PUSH1 0x40 MLOAD DUP1 DUP4 SUB DUP2 PUSH1 0x0 DUP8 DUP1 EXTCODESIZE ISZERO DUP1 ISZERO PUSH2 0x191 JUMPI PUSH1 0x0 DUP1 REVERT JUMPDEST POP GAS CALL ISZERO DUP1 ISZERO PUSH2 0x1A5 JUMPI RETURNDATASIZE PUSH1 0x0 DUP1 RETURNDATACOPY RETURNDATASIZE PUSH1 0x0 REVERT JUMPDEST POP POP POP POP PUSH2 0x86 JUMP JUMPDEST PUSH1 0x40 MLOAD PUSH4 0x34292539 PUSH1 0xE2 SHL DUP2 MSTORE PUSH1 0x1 PUSH1 0x1 PUSH1 0xA0 SHL SUB DUP7 AND SWAP1 PUSH4 0xD0A494E4 SWAP1 PUSH2 0x1E1 SWAP1 PUSH1 0x0 SWAP1 DUP9 SWAP1 ADDRESS SWAP1 DUP9 SWAP1 PUSH1 0x4 ADD PUSH2 0x8E7 JUMP JUMPDEST PUSH1 0x0 PUSH1 0x40 MLOAD DUP1 DUP4 SUB DUP2 PUSH1 0x0 DUP8 DUP1 EXTCODESIZE ISZERO DUP1 ISZERO PUSH2 0x1FB JUMPI PUSH1 0x0 DUP1 REVERT JUMPDEST POP GAS CALL ISZERO DUP1 ISZERO PUSH2 0x20F JUMPI RETURNDATASIZE PUSH1 0x0 DUP1 RETURNDATACOPY RETURNDATASIZE PUSH1 0x0 REVERT JUMPDEST POP POP POP POP POP POP POP POP POP JUMP JUMPDEST PUSH1 0x0 DUP1 DUP1 PUSH2 0x22A DUP5 DUP7 ADD DUP7 PUSH2 0x6F5 JUMP JUMPDEST SWAP2 SWAP5 POP SWAP3 POP SWAP1 POP PUSH1 0x1 PUSH1 0x1 PUSH1 0xA0 SHL SUB DUP9 AND ADDRESS EQ DUP1 ISZERO PUSH2 0x251 JUMPI POP CALLER PUSH1 0x1 PUSH1 0x1 PUSH1 0xA0 SHL SUB DUP5 AND EQ JUMPDEST PUSH2 0x276 JUMPI PUSH1 0x40 MLOAD PUSH3 0x461BCD PUSH1 0xE5 SHL DUP2 MSTORE PUSH1 0x4 ADD PUSH2 0x26D SWAP1 PUSH2 0x9BD JUMP JUMPDEST PUSH1 0x40 MLOAD DUP1 SWAP2 SUB SWAP1 REVERT JUMPDEST PUSH1 0x40 MLOAD PUSH4 0x70A08231 PUSH1 0xE0 SHL DUP2 MSTORE PUSH2 0x331 SWAP1 PUSH1 0x1 PUSH1 0x1 PUSH1 0xA0 SHL SUB DUP5 AND SWAP1 PUSH4 0x70A08231 SWAP1 PUSH2 0x2A6 SWAP1 ADDRESS SWAP1 PUSH1 0x4 ADD PUSH2 0x88F JUMP JUMPDEST PUSH1 0x20 PUSH1 0x40 MLOAD DUP1 DUP4 SUB DUP2 DUP7 DUP1 EXTCODESIZE ISZERO DUP1 ISZERO PUSH2 0x2BE JUMPI PUSH1 0x0 DUP1 REVERT JUMPDEST POP GAS STATICCALL ISZERO DUP1 ISZERO PUSH2 0x2D2 JUMPI RETURNDATASIZE PUSH1 0x0 DUP1 RETURNDATACOPY RETURNDATASIZE PUSH1 0x0 REVERT JUMPDEST POP POP POP POP PUSH1 0x40 MLOAD RETURNDATASIZE PUSH1 0x1F NOT PUSH1 0x1F DUP3 ADD AND DUP3 ADD DUP1 PUSH1 0x40 MSTORE POP DUP2 ADD SWAP1 PUSH2 0x2F6 SWAP2 SWAP1 PUSH2 0x821 JUMP JUMPDEST PUSH1 0x40 MLOAD DUP1 PUSH1 0x40 ADD PUSH1 0x40 MSTORE DUP1 PUSH1 0x1B DUP2 MSTORE PUSH1 0x20 ADD PUSH32 0x7468697320616D6F756E7420206861766520746F2072657475726E0000000000 DUP2 MSTORE POP PUSH2 0x554 JUMP JUMPDEST PUSH1 0x40 MLOAD PUSH4 0x70A08231 PUSH1 0xE0 SHL DUP2 MSTORE PUSH1 0x1 PUSH1 0x1 PUSH1 0xA0 SHL SUB DUP4 AND SWAP1 PUSH4 0x70A08231 SWAP1 PUSH2 0x35D SWAP1 ADDRESS SWAP1 PUSH1 0x4 ADD PUSH2 0x88F JUMP JUMPDEST PUSH1 0x20 PUSH1 0x40 MLOAD DUP1 DUP4 SUB DUP2 DUP7 DUP1 EXTCODESIZE ISZERO DUP1 ISZERO PUSH2 0x375 JUMPI PUSH1 0x0 DUP1 REVERT JUMPDEST POP GAS STATICCALL ISZERO DUP1 ISZERO PUSH2 0x389 JUMPI RETURNDATASIZE PUSH1 0x0 DUP1 RETURNDATACOPY RETURNDATASIZE PUSH1 0x0 REVERT JUMPDEST POP POP POP POP PUSH1 0x40 MLOAD RETURNDATASIZE PUSH1 0x1F NOT PUSH1 0x1F DUP3 ADD AND DUP3 ADD DUP1 PUSH1 0x40 MSTORE POP DUP2 ADD SWAP1 PUSH2 0x3AD SWAP2 SWAP1 PUSH2 0x821 JUMP JUMPDEST DUP2 EQ PUSH2 0x3CB JUMPI PUSH1 0x40 MLOAD PUSH3 0x461BCD PUSH1 0xE5 SHL DUP2 MSTORE PUSH1 0x4 ADD PUSH2 0x26D SWAP1 PUSH2 0x95C JUMP JUMPDEST PUSH32 0x3A227357A857CE0C0E91741D8ECCC8993FEBA4B2722ACB7260125B30CE214136 DUP3 DUP3 PUSH1 0x40 MLOAD PUSH2 0x3FC SWAP3 SWAP2 SWAP1 PUSH2 0x8C5 JUMP JUMPDEST PUSH1 0x40 MLOAD DUP1 SWAP2 SUB SWAP1 LOG1 PUSH8 0xDE0B6B3A7640000 DUP2 GT ISZERO PUSH2 0x452 JUMPI PUSH1 0x40 DUP1 MLOAD DUP1 DUP3 ADD SWAP1 SWAP2 MSTORE PUSH1 0xC DUP2 MSTORE PUSH12 0x165BDD48189BDC9C9BDDD959 PUSH1 0xA2 SHL PUSH1 0x20 DUP3 ADD MSTORE PUSH2 0x452 SWAP1 PUSH2 0x44D PUSH8 0xDE0B6B3A7640000 DUP5 PUSH2 0xA29 JUMP JUMPDEST PUSH2 0x59D JUMP JUMPDEST PUSH1 0x40 MLOAD PUSH4 0xA9059CBB PUSH1 0xE0 SHL DUP2 MSTORE PUSH1 0x1 PUSH1 0x1 PUSH1 0xA0 SHL SUB DUP4 AND SWAP1 PUSH4 0xA9059CBB SWAP1 PUSH2 0x480 SWAP1 DUP7 SWAP1 DUP6 SWAP1 PUSH1 0x4 ADD PUSH2 0x8C5 JUMP JUMPDEST PUSH1 0x20 PUSH1 0x40 MLOAD DUP1 DUP4 SUB DUP2 PUSH1 0x0 DUP8 DUP1 EXTCODESIZE ISZERO DUP1 ISZERO PUSH2 0x49A JUMPI PUSH1 0x0 DUP1 REVERT JUMPDEST POP GAS CALL ISZERO DUP1 ISZERO PUSH2 0x4AE JUMPI RETURNDATASIZE PUSH1 0x0 DUP1 RETURNDATACOPY RETURNDATASIZE PUSH1 0x0 REVERT JUMPDEST POP POP POP POP PUSH1 0x40 MLOAD RETURNDATASIZE PUSH1 0x1F NOT PUSH1 0x1F DUP3 ADD AND DUP3 ADD DUP1 PUSH1 0x40 MSTORE POP DUP2 ADD SWAP1 PUSH2 0x4D2 SWAP2 SWAP1 PUSH2 0x803 JUMP JUMPDEST POP PUSH32 0xDB1CB55863E8C14B76121E1C7A1DD384BBF404FACE056DCD7F4ED8D9DAA716DA DUP3 DUP3 PUSH1 0x40 MLOAD PUSH2 0x504 SWAP3 SWAP2 SWAP1 PUSH2 0x8C5 JUMP JUMPDEST PUSH1 0x40 MLOAD DUP1 SWAP2 SUB SWAP1 LOG1 PUSH2 0x54A PUSH1 0x40 MLOAD DUP1 PUSH1 0x40 ADD PUSH1 0x40 MSTORE DUP1 PUSH1 0x1F DUP2 MSTORE PUSH1 0x20 ADD PUSH32 0x596F75207375636365737366756C6C792072657475726E6564206C6F616E2100 DUP2 MSTORE POP PUSH2 0x5E2 JUMP JUMPDEST POP POP POP POP POP POP POP POP JUMP JUMPDEST PUSH2 0x599 DUP3 DUP3 PUSH1 0x40 MLOAD PUSH1 0x24 ADD PUSH2 0x56A SWAP3 SWAP2 SWAP1 PUSH2 0xA09 JUMP JUMPDEST PUSH1 0x40 DUP1 MLOAD PUSH1 0x1F NOT DUP2 DUP5 SUB ADD DUP2 MSTORE SWAP2 SWAP1 MSTORE PUSH1 0x20 DUP2 ADD DUP1 MLOAD PUSH1 0x1 PUSH1 0x1 PUSH1 0xE0 SHL SUB AND PUSH4 0x643FD0DF PUSH1 0xE0 SHL OR SWAP1 MSTORE PUSH2 0x628 JUMP JUMPDEST POP POP JUMP JUMPDEST PUSH2 0x599 DUP3 DUP3 PUSH1 0x40 MLOAD PUSH1 0x24 ADD PUSH2 0x5B3 SWAP3 SWAP2 SWAP1 PUSH2 0x93C JUMP JUMPDEST PUSH1 0x40 DUP1 MLOAD PUSH1 0x1F NOT DUP2 DUP5 SUB ADD DUP2 MSTORE SWAP2 SWAP1 MSTORE PUSH1 0x20 DUP2 ADD DUP1 MLOAD PUSH1 0x1 PUSH1 0x1 PUSH1 0xE0 SHL SUB AND PUSH4 0x2D839CB3 PUSH1 0xE2 SHL OR SWAP1 MSTORE PUSH2 0x628 JUMP JUMPDEST PUSH2 0x625 DUP2 PUSH1 0x40 MLOAD PUSH1 0x24 ADD PUSH2 0x5F6 SWAP2 SWAP1 PUSH2 0x92B JUMP JUMPDEST PUSH1 0x40 DUP1 MLOAD PUSH1 0x1F NOT DUP2 DUP5 SUB ADD DUP2 MSTORE SWAP2 SWAP1 MSTORE PUSH1 0x20 DUP2 ADD DUP1 MLOAD PUSH1 0x1 PUSH1 0x1 PUSH1 0xE0 SHL SUB AND PUSH4 0x104C13EB PUSH1 0xE2 SHL OR SWAP1 MSTORE PUSH2 0x628 JUMP JUMPDEST POP JUMP JUMPDEST DUP1 MLOAD PUSH11 0x636F6E736F6C652E6C6F67 PUSH1 0x20 DUP4 ADD PUSH1 0x0 DUP1 DUP5 DUP4 DUP6 GAS STATICCALL POP POP POP POP POP JUMP JUMPDEST DUP1 CALLDATALOAD PUSH2 0x654 DUP2 PUSH2 0xA9C JUMP JUMPDEST SWAP3 SWAP2 POP POP JUMP JUMPDEST DUP1 MLOAD PUSH2 0x654 DUP2 PUSH2 0xA9C JUMP JUMPDEST DUP1 MLOAD PUSH2 0x654 DUP2 PUSH2 0xAB0 JUMP JUMPDEST PUSH1 0x0 DUP1 DUP4 PUSH1 0x1F DUP5 ADD SLT PUSH2 0x682 JUMPI PUSH1 0x0 DUP1 REVERT JUMPDEST POP DUP2 CALLDATALOAD PUSH8 0xFFFFFFFFFFFFFFFF DUP2 GT ISZERO PUSH2 0x69A JUMPI PUSH1 0x0 DUP1 REVERT JUMPDEST PUSH1 0x20 DUP4 ADD SWAP2 POP DUP4 PUSH1 0x1 DUP3 MUL DUP4 ADD GT ISZERO PUSH2 0x6B2 JUMPI PUSH1 0x0 DUP1 REVERT JUMPDEST SWAP3 POP SWAP3 SWAP1 POP JUMP JUMPDEST DUP1 CALLDATALOAD PUSH2 0x654 DUP2 PUSH2 0xAB8 JUMP JUMPDEST DUP1 MLOAD PUSH2 0x654 DUP2 PUSH2 0xAB8 JUMP JUMPDEST PUSH1 0x0 PUSH1 0x20 DUP3 DUP5 SUB SLT ISZERO PUSH2 0x6E1 JUMPI PUSH1 0x0 DUP1 REVERT JUMPDEST PUSH1 0x0 PUSH2 0x6ED DUP5 DUP5 PUSH2 0x65A JUMP JUMPDEST SWAP5 SWAP4 POP POP POP POP JUMP JUMPDEST PUSH1 0x0 DUP1 PUSH1 0x0 PUSH1 0x60 DUP5 DUP7 SUB SLT ISZERO PUSH2 0x70A JUMPI PUSH1 0x0 DUP1 REVERT JUMPDEST PUSH1 0x0 PUSH2 0x716 DUP7 DUP7 PUSH2 0x649 JUMP JUMPDEST SWAP4 POP POP PUSH1 0x20 PUSH2 0x727 DUP7 DUP3 DUP8 ADD PUSH2 0x649 JUMP JUMPDEST SWAP3 POP POP PUSH1 0x40 PUSH2 0x738 DUP7 DUP3 DUP8 ADD PUSH2 0x6B9 JUMP JUMPDEST SWAP2 POP POP SWAP3 POP SWAP3 POP SWAP3 JUMP JUMPDEST PUSH1 0x0 DUP1 PUSH1 0x0 PUSH1 0x60 DUP5 DUP7 SUB SLT ISZERO PUSH2 0x757 JUMPI PUSH1 0x0 DUP1 REVERT JUMPDEST PUSH1 0x0 PUSH2 0x763 DUP7 DUP7 PUSH2 0x649 JUMP JUMPDEST SWAP4 POP POP PUSH1 0x20 PUSH2 0x774 DUP7 DUP3 DUP8 ADD PUSH2 0x6B9 JUMP JUMPDEST SWAP3 POP POP PUSH1 0x40 PUSH2 0x738 DUP7 DUP3 DUP8 ADD PUSH2 0x649 JUMP JUMPDEST PUSH1 0x0 DUP1 PUSH1 0x0 DUP1 PUSH1 0x0 PUSH1 0x80 DUP7 DUP9 SUB SLT ISZERO PUSH2 0x79D JUMPI PUSH1 0x0 DUP1 REVERT JUMPDEST PUSH1 0x0 PUSH2 0x7A9 DUP9 DUP9 PUSH2 0x649 JUMP JUMPDEST SWAP6 POP POP PUSH1 0x20 PUSH2 0x7BA DUP9 DUP3 DUP10 ADD PUSH2 0x6B9 JUMP JUMPDEST SWAP5 POP POP PUSH1 0x40 PUSH2 0x7CB DUP9 DUP3 DUP10 ADD PUSH2 0x6B9 JUMP JUMPDEST SWAP4 POP POP PUSH1 0x60 DUP7 ADD CALLDATALOAD PUSH8 0xFFFFFFFFFFFFFFFF DUP2 GT ISZERO PUSH2 0x7E8 JUMPI PUSH1 0x0 DUP1 REVERT JUMPDEST PUSH2 0x7F4 DUP9 DUP3 DUP10 ADD PUSH2 0x670 JUMP JUMPDEST SWAP3 POP SWAP3 POP POP SWAP3 SWAP6 POP SWAP3 SWAP6 SWAP1 SWAP4 POP JUMP JUMPDEST PUSH1 0x0 PUSH1 0x20 DUP3 DUP5 SUB SLT ISZERO PUSH2 0x815 JUMPI PUSH1 0x0 DUP1 REVERT JUMPDEST PUSH1 0x0 PUSH2 0x6ED DUP5 DUP5 PUSH2 0x665 JUMP JUMPDEST PUSH1 0x0 PUSH1 0x20 DUP3 DUP5 SUB SLT ISZERO PUSH2 0x833 JUMPI PUSH1 0x0 DUP1 REVERT JUMPDEST PUSH1 0x0 PUSH2 0x6ED DUP5 DUP5 PUSH2 0x6C4 JUMP JUMPDEST PUSH2 0x848 DUP2 PUSH2 0xA3D JUMP JUMPDEST DUP3 MSTORE POP POP JUMP JUMPDEST PUSH1 0x0 PUSH2 0x858 DUP3 MLOAD SWAP1 JUMP JUMPDEST DUP1 DUP5 MSTORE PUSH1 0x20 DUP5 ADD SWAP4 POP PUSH2 0x86F DUP2 DUP6 PUSH1 0x20 DUP7 ADD PUSH2 0xA56 JUMP JUMPDEST PUSH1 0x1F ADD PUSH1 0x1F NOT AND SWAP3 SWAP1 SWAP3 ADD SWAP3 SWAP2 POP POP JUMP JUMPDEST PUSH2 0x848 DUP2 PUSH2 0xA4E JUMP JUMPDEST DUP1 PUSH2 0x848 JUMP JUMPDEST PUSH1 0x20 DUP2 ADD PUSH2 0x654 DUP3 DUP5 PUSH2 0x83F JUMP JUMPDEST PUSH1 0x60 DUP2 ADD PUSH2 0x8AB DUP3 DUP7 PUSH2 0x83F JUMP JUMPDEST PUSH2 0x8B8 PUSH1 0x20 DUP4 ADD DUP6 PUSH2 0x83F JUMP JUMPDEST PUSH2 0x6ED PUSH1 0x40 DUP4 ADD DUP5 PUSH2 0x889 JUMP JUMPDEST PUSH1 0x40 DUP2 ADD PUSH2 0x8D3 DUP3 DUP6 PUSH2 0x83F JUMP JUMPDEST PUSH2 0x8E0 PUSH1 0x20 DUP4 ADD DUP5 PUSH2 0x889 JUMP JUMPDEST SWAP4 SWAP3 POP POP POP JUMP JUMPDEST PUSH1 0x80 DUP2 ADD PUSH2 0x8F5 DUP3 DUP8 PUSH2 0x880 JUMP JUMPDEST PUSH2 0x902 PUSH1 0x20 DUP4 ADD DUP7 PUSH2 0x889 JUMP JUMPDEST PUSH2 0x90F PUSH1 0x40 DUP4 ADD DUP6 PUSH2 0x83F JUMP JUMPDEST DUP2 DUP2 SUB PUSH1 0x60 DUP4 ADD MSTORE PUSH2 0x921 DUP2 DUP5 PUSH2 0x84E JUMP JUMPDEST SWAP7 SWAP6 POP POP POP POP POP POP JUMP JUMPDEST PUSH1 0x20 DUP1 DUP3 MSTORE DUP2 ADD PUSH2 0x8E0 DUP2 DUP5 PUSH2 0x84E JUMP JUMPDEST PUSH1 0x40 DUP1 DUP3 MSTORE DUP2 ADD PUSH2 0x94D DUP2 DUP6 PUSH2 0x84E JUMP JUMPDEST SWAP1 POP PUSH2 0x8E0 PUSH1 0x20 DUP4 ADD DUP5 PUSH2 0x889 JUMP JUMPDEST PUSH1 0x20 DUP1 DUP3 MSTORE DUP2 ADD PUSH2 0x654 DUP2 PUSH1 0x3A DUP2 MSTORE PUSH32 0x546865206C6F616E416D6F756E7420616E64207468652063757272656E742062 PUSH1 0x20 DUP3 ADD MSTORE PUSH32 0x616C616E63652073686F756C64206265207468652073616D6521000000000000 PUSH1 0x40 DUP3 ADD MSTORE PUSH1 0x60 ADD SWAP1 JUMP JUMPDEST PUSH1 0x20 DUP1 DUP3 MSTORE DUP2 ADD PUSH2 0x654 DUP2 PUSH1 0x13 DUP2 MSTORE PUSH19 0x12105391131157D1931054D217D39153925151 PUSH1 0x6A SHL PUSH1 0x20 DUP3 ADD MSTORE PUSH1 0x40 ADD SWAP1 JUMP JUMPDEST PUSH1 0x80 DUP2 ADD PUSH2 0x9FC DUP3 DUP8 PUSH2 0x889 JUMP JUMPDEST PUSH2 0x902 PUSH1 0x20 DUP4 ADD DUP7 PUSH2 0x880 JUMP JUMPDEST PUSH1 0x40 DUP2 ADD PUSH2 0xA17 DUP3 DUP6 PUSH2 0x889 JUMP JUMPDEST DUP2 DUP2 SUB PUSH1 0x20 DUP4 ADD MSTORE PUSH2 0x6ED DUP2 DUP5 PUSH2 0x84E JUMP JUMPDEST PUSH1 0x0 DUP3 PUSH2 0xA38 JUMPI PUSH2 0xA38 PUSH2 0xA86 JUMP JUMPDEST POP DIV SWAP1 JUMP JUMPDEST PUSH1 0x0 PUSH1 0x1 PUSH1 0x1 PUSH1 0xA0 SHL SUB DUP3 AND PUSH2 0x654 JUMP JUMPDEST PUSH1 0x0 DUP2 PUSH2 0x654 JUMP JUMPDEST PUSH1 0x0 JUMPDEST DUP4 DUP2 LT ISZERO PUSH2 0xA71 JUMPI DUP2 DUP2 ADD MLOAD DUP4 DUP3 ADD MSTORE PUSH1 0x20 ADD PUSH2 0xA59 JUMP JUMPDEST DUP4 DUP2 GT ISZERO PUSH2 0xA80 JUMPI PUSH1 0x0 DUP5 DUP5 ADD MSTORE JUMPDEST POP POP POP POP JUMP JUMPDEST PUSH4 0x4E487B71 PUSH1 0xE0 SHL PUSH1 0x0 MSTORE PUSH1 0x12 PUSH1 0x4 MSTORE PUSH1 0x24 PUSH1 0x0 REVERT JUMPDEST PUSH2 0xAA5 DUP2 PUSH2 0xA3D JUMP JUMPDEST DUP2 EQ PUSH2 0x625 JUMPI PUSH1 0x0 DUP1 REVERT JUMPDEST DUP1 ISZERO ISZERO PUSH2 0xAA5 JUMP JUMPDEST DUP1 PUSH2 0xAA5 JUMP INVALID LOG2 PUSH5 0x6970667358 0x22 SLT KECCAK256 DUP2 PUSH23 0x5306A9757A5826C819924FB0B6975CEC7F42489C6B8DB2 0xE5 0xB4 0xD2 SWAP10 PUSH3 0x93C064 PUSH20 0x6F6C634300080400330000000000000000000000 "},"methodIdentifiers":{"DPPFlashLoanCall(address,uint256,uint256,bytes)":"7ed1f1dd","DSPFlashLoanCall(address,uint256,uint256,bytes)":"d5b99797","DVMFlashLoanCall(address,uint256,uint256,bytes)":"eb2021c3","dodoFlashLoan(address,uint256,address)":"ed97c938"}},"storageLayout":{"storage":[],"types":null}}}}