{"contracts/DODOProxyIntegrate.sol":{"DODOProxyIntegrate":{"abi":[{"inputs":[],"name":"useDodoSwapV1","outputs":[],"stateMutability":"nonpayable","type":"function"},{"inputs":[{"internalType":"address","name":"fromToken","type":"address"},{"internalType":"address","name":"toToken","type":"address"},{"internalType":"uint256","name":"fromTokenAmount","type":"uint256"},{"internalType":"address","name":"dodoV2Pool","type":"address"}],"name":"useDodoSwapV2","outputs":[],"stateMutability":"nonpayable","type":"function"}],"evm":{"bytecode":{"linkReferences":{},"object":"608060405234801561001057600080fd5b506110c0806100206000396000f3fe608060405234801561001057600080fd5b50600436106100365760003560e01c806325765d921461003b5780636a7b076814610045575b600080fd5b610043610058565b005b610043610053366004610ae2565b61035d565b6040516323b872dd60e01b815273be60d4c4250438344bec816ec2dec99925deb4c7907355d398326f99059ff775485246999027b31979559073e9e7cea3dedca5984780bafc599bd69add087d5690670de0b6b3a764000090600190730f859706aee7fcf61d5a8939e8cb9dbb6c1eda339085906323b872dd906100e490339030908890600401610da5565b602060405180830381600087803b1580156100fe57600080fd5b505af1158015610112573d6000803e3d6000fd5b505050506040513d601f19601f820116820180604052508101906101369190610b43565b5060405163ca19ebd960e01b81526000906001600160a01b0383169063ca19ebd990610168908a908890600401610e81565b60206040518083038186803b15801561018057600080fd5b505afa158015610194573d6000803e3d6000fd5b505050506040513d601f19601f820116820180604052508101906101b89190610b61565b905060006101db60646101d56101ce8783610fb1565b8590610606565b9061061b565b6040805160018082528183019092529192506000919060208083019080368337019050509050888160008151811061022357634e487b7160e01b600052603260045260246000fd5b6001600160a01b03909216602092830291909101909101526001600061024b42610258610f66565b905073a128ba44b2738a558a1fdc06d6303d52d3cef8c161026d8b828b610627565b6000738f8dd7db1bda5ed3da8c9daf3bfa471c12d5848690506000816001600160a01b0316630dd4ebd98e8e8e8b8b8b60008c6040518963ffffffff1660e01b81526004016102c3989796959493929190610e4b565b602060405180830381600087803b1580156102dd57600080fd5b505af11580156102f1573d6000803e3d6000fd5b505050506040513d601f19601f820116820180604052508101906103159190610b61565b9050610339816040518060600160405280602f815260200161105c602f91396106e9565b61034d6001600160a01b038d163383610732565b5050505050505050505050505050565b604080518082018252601081526f1a5b9a5d1a585b0818dbdb9d1c9858dd60821b602082015290516370a0823160e01b815260019161040a916001600160a01b038816906370a08231906103b5903090600401610d7c565b60206040518083038186803b1580156103cd57600080fd5b505afa1580156103e1573d6000803e3d6000fd5b505050506040513d601f19601f820116820180604052508101906104059190610b61565b61078d565b604051633cd0243b60e11b81526000906001600160a01b038416906379a048769061043b9033908890600401610e81565b604080518083038186803b15801561045257600080fd5b505afa158015610466573d6000803e3d6000fd5b505050506040513d601f19601f8201168201806040525081019061048a9190610b7f565b509050610496816107d2565b60006104aa60646101d56101ce8683610fb1565b90506104b5816107d2565b6040805160018082528183019092526000916020808301908036833701905050905084816000815181106104f957634e487b7160e01b600052603260045260246000fd5b6001600160a01b03909216602092830291909101909101526001600061052142610258610f66565b9050736d310348d5c12009854dfcf72e0df9027e8cb4f46105438b828b610627565b600073a222e6a71d1a1dd5f279805fbe38d5329c1d0e7090506000816001600160a01b031663f87dc1b78e8e8e60018b8b60008c6040518963ffffffff1660e01b815260040161059a989796959493929190610dcd565b602060405180830381600087803b1580156105b457600080fd5b505af11580156105c8573d6000803e3d6000fd5b505050506040513d601f19601f820116820180604052508101906105ec9190610b61565b90506105f7816107d2565b50505050505050505050505050565b60006106128284610f92565b90505b92915050565b60006106128284610f7e565b604051636eb1769f60e11b81526000906001600160a01b0385169063dd62ed3e906106589030908790600401610d8a565b60206040518083038186803b15801561067057600080fd5b505afa158015610684573d6000803e3d6000fd5b505050506040513d601f19601f820116820180604052508101906106a89190610b61565b9050818110156106e35780156106cd576106cd6001600160a01b038516846000610818565b6106e36001600160a01b03851684600019610818565b50505050565b61072e82826040516024016106ff929190610f46565b60408051601f198184030181529190526020810180516001600160e01b031663643fd0df60e01b1790526108e4565b5050565b6107888363a9059cbb60e01b8484604051602401610751929190610e81565b60408051601f198184030181529190526020810180516001600160e01b03166001600160e01b031990931692909217909152610905565b505050565b61072e82826040516024016107a3929190610ead565b60408051601f198184030181529190526020810180516001600160e01b0316632d839cb360e21b1790526108e4565b610815816040516024016107e69190610f38565b60408051601f198184030181529190526020810180516001600160e01b031663f82c50f160e01b1790526108e4565b50565b8015806108a05750604051636eb1769f60e11b81526001600160a01b0384169063dd62ed3e9061084e9030908690600401610d8a565b60206040518083038186803b15801561086657600080fd5b505afa15801561087a573d6000803e3d6000fd5b505050506040513d601f19601f8201168201806040525081019061089e9190610b61565b155b6108c55760405162461bcd60e51b81526004016108bc90610f28565b60405180910390fd5b6107888363095ea7b360e01b8484604051602401610751929190610e81565b80516a636f6e736f6c652e6c6f67602083016000808483855afa5050505050565b600061095a826040518060400160405280602081526020017f5361666545524332303a206c6f772d6c6576656c2063616c6c206661696c6564815250856001600160a01b03166109949092919063ffffffff16565b80519091501561078857808060200190518101906109789190610b43565b6107885760405162461bcd60e51b81526004016108bc90610f18565b60606109a384846000856109ad565b90505b9392505050565b6060824710156109cf5760405162461bcd60e51b81526004016108bc90610ecd565b600080866001600160a01b031685876040516109eb9190610d70565b60006040518083038185875af1925050503d8060008114610a28576040519150601f19603f3d011682016040523d82523d6000602084013e610a2d565b606091505b5091509150610a3e87838387610a4b565b925050505b949350505050565b60608315610a87578251610a80576001600160a01b0385163b610a805760405162461bcd60e51b81526004016108bc90610edd565b5081610a43565b610a438383815115610a9c5781518083602001fd5b8060405162461bcd60e51b81526004016108bc9190610e9c565b803561061581611039565b80516106158161104d565b803561061581611055565b805161061581611055565b60008060008060808587031215610af857600080fd5b6000610b048787610ab6565b9450506020610b1587828801610ab6565b9350506040610b2687828801610acc565b9250506060610b3787828801610ab6565b91505092959194509250565b600060208284031215610b5557600080fd5b6000610a438484610ac1565b600060208284031215610b7357600080fd5b6000610a438484610ad7565b60008060408385031215610b9257600080fd5b6000610b9e8585610ad7565b9250506020610baf85828601610ad7565b9150509250929050565b6000610bc58383610bcd565b505060200190565b610bd681610fc8565b82525050565b6000610be6825190565b80845260209384019383018060005b83811015610c1a578151610c098882610bb9565b975060208301925050600101610bf5565b509495945050505050565b801515610bd6565b6000610c37825190565b610c45818560208601610fe1565b9290920192915050565b610bd681610fd9565b6000610c62825190565b808452602084019350610c79818560208601610fe1565b601f01601f19169290920192915050565b602681526000602082017f416464726573733a20696e73756666696369656e742062616c616e636520666f8152651c8818d85b1b60d21b602082015291505b5060400190565b602a81526000602082017f5361666545524332303a204552433230206f7065726174696f6e20646964206e8152691bdd081cdd58d8d9595960b21b60208201529150610cc9565b603681526000602082017f5361666545524332303a20617070726f76652066726f6d206e6f6e2d7a65726f81527520746f206e6f6e2d7a65726f20616c6c6f77616e636560501b60208201529150610cc9565b80610bd6565b60006109a68284610c2d565b602081016106158284610bcd565b60408101610d988285610bcd565b6109a66020830184610bcd565b60608101610db38286610bcd565b610dc06020830185610bcd565b610a436040830184610d6a565b6101008101610ddc828b610bcd565b610de9602083018a610bcd565b610df66040830189610d6a565b610e036060830188610c4f565b8181036080830152610e158187610bdc565b9050610e2460a0830186610d6a565b610e3160c0830185610c25565b610e3e60e0830184610d6a565b9998505050505050505050565b6101008101610e5a828b610bcd565b610e67602083018a610bcd565b610e746040830189610d6a565b610e036060830188610d6a565b60408101610e8f8285610bcd565b6109a66020830184610d6a565b602080825281016106128184610c58565b60408082528101610ebe8185610c58565b90506109a66020830184610d6a565b6020808252810161061581610c8a565b6020808252810161061581601d81527f416464726573733a2063616c6c20746f206e6f6e2d636f6e7472616374000000602082015260400190565b6020808252810161061581610cd0565b6020808252810161061581610d17565b602081016106158284610d6a565b60408101610f548285610d6a565b81810360208301526109a38184610c58565b60008219821115610f7957610f7961100d565b500190565b600082610f8d57610f8d611023565b500490565b6000816000190483118215151615610fac57610fac61100d565b500290565b600082821015610fc357610fc361100d565b500390565b60006001600160a01b038216610615565b600081610615565b60005b83811015610ffc578181015183820152602001610fe4565b838111156106e35750506000910152565b634e487b7160e01b600052601160045260246000fd5b634e487b7160e01b600052601260045260246000fd5b61104281610fc8565b811461081557600080fd5b801515611042565b8061104256fe72657475726e616d6f756e745f5f5f5f5f5f5f5f5f5f5f5f5f5f5f5f5f5f5f5f5f5f5f5f5f5f5f5f5f5f5f5f5f5f5fa26469706673582212203a6f24a3d46e3d650f9494937b4c725814c604282797242e6472977ceb3e243764736f6c63430008040033","opcodes":"PUSH1 0x80 PUSH1 0x40 MSTORE CALLVALUE DUP1 ISZERO PUSH2 0x10 JUMPI PUSH1 0x0 DUP1 REVERT JUMPDEST POP PUSH2 0x10C0 DUP1 PUSH2 0x20 PUSH1 0x0 CODECOPY PUSH1 0x0 RETURN INVALID PUSH1 0x80 PUSH1 0x40 MSTORE CALLVALUE DUP1 ISZERO PUSH2 0x10 JUMPI PUSH1 0x0 DUP1 REVERT JUMPDEST POP PUSH1 0x4 CALLDATASIZE LT PUSH2 0x36 JUMPI PUSH1 0x0 CALLDATALOAD PUSH1 0xE0 SHR DUP1 PUSH4 0x25765D92 EQ PUSH2 0x3B JUMPI DUP1 PUSH4 0x6A7B0768 EQ PUSH2 0x45 JUMPI JUMPDEST PUSH1 0x0 DUP1 REVERT JUMPDEST PUSH2 0x43 PUSH2 0x58 JUMP JUMPDEST STOP JUMPDEST PUSH2 0x43 PUSH2 0x53 CALLDATASIZE PUSH1 0x4 PUSH2 0xAE2 JUMP JUMPDEST PUSH2 0x35D JUMP JUMPDEST PUSH1 0x40 MLOAD PUSH4 0x23B872DD PUSH1 0xE0 SHL DUP2 MSTORE PUSH20 0xBE60D4C4250438344BEC816EC2DEC99925DEB4C7 SWAP1 PUSH20 0x55D398326F99059FF775485246999027B3197955 SWAP1 PUSH20 0xE9E7CEA3DEDCA5984780BAFC599BD69ADD087D56 SWAP1 PUSH8 0xDE0B6B3A7640000 SWAP1 PUSH1 0x1 SWAP1 PUSH20 0xF859706AEE7FCF61D5A8939E8CB9DBB6C1EDA33 SWAP1 DUP6 SWAP1 PUSH4 0x23B872DD SWAP1 PUSH2 0xE4 SWAP1 CALLER SWAP1 ADDRESS SWAP1 DUP9 SWAP1 PUSH1 0x4 ADD PUSH2 0xDA5 JUMP JUMPDEST PUSH1 0x20 PUSH1 0x40 MLOAD DUP1 DUP4 SUB DUP2 PUSH1 0x0 DUP8 DUP1 EXTCODESIZE ISZERO DUP1 ISZERO PUSH2 0xFE JUMPI PUSH1 0x0 DUP1 REVERT JUMPDEST POP GAS CALL ISZERO DUP1 ISZERO PUSH2 0x112 JUMPI RETURNDATASIZE PUSH1 0x0 DUP1 RETURNDATACOPY RETURNDATASIZE PUSH1 0x0 REVERT JUMPDEST POP POP POP POP PUSH1 0x40 MLOAD RETURNDATASIZE PUSH1 0x1F NOT PUSH1 0x1F DUP3 ADD AND DUP3 ADD DUP1 PUSH1 0x40 MSTORE POP DUP2 ADD SWAP1 PUSH2 0x136 SWAP2 SWAP1 PUSH2 0xB43 JUMP JUMPDEST POP PUSH1 0x40 MLOAD PUSH4 0xCA19EBD9 PUSH1 0xE0 SHL DUP2 MSTORE PUSH1 0x0 SWAP1 PUSH1 0x1 PUSH1 0x1 PUSH1 0xA0 SHL SUB DUP4 AND SWAP1 PUSH4 0xCA19EBD9 SWAP1 PUSH2 0x168 SWAP1 DUP11 SWAP1 DUP9 SWAP1 PUSH1 0x4 ADD PUSH2 0xE81 JUMP JUMPDEST PUSH1 0x20 PUSH1 0x40 MLOAD DUP1 DUP4 SUB DUP2 DUP7 DUP1 EXTCODESIZE ISZERO DUP1 ISZERO PUSH2 0x180 JUMPI PUSH1 0x0 DUP1 REVERT JUMPDEST POP GAS STATICCALL ISZERO DUP1 ISZERO PUSH2 0x194 JUMPI RETURNDATASIZE PUSH1 0x0 DUP1 RETURNDATACOPY RETURNDATASIZE PUSH1 0x0 REVERT JUMPDEST POP POP POP POP PUSH1 0x40 MLOAD RETURNDATASIZE PUSH1 0x1F NOT PUSH1 0x1F DUP3 ADD AND DUP3 ADD DUP1 PUSH1 0x40 MSTORE POP DUP2 ADD SWAP1 PUSH2 0x1B8 SWAP2 SWAP1 PUSH2 0xB61 JUMP JUMPDEST SWAP1 POP PUSH1 0x0 PUSH2 0x1DB PUSH1 0x64 PUSH2 0x1D5 PUSH2 0x1CE DUP8 DUP4 PUSH2 0xFB1 JUMP JUMPDEST DUP6 SWAP1 PUSH2 0x606 JUMP JUMPDEST SWAP1 PUSH2 0x61B JUMP JUMPDEST PUSH1 0x40 DUP1 MLOAD PUSH1 0x1 DUP1 DUP3 MSTORE DUP2 DUP4 ADD SWAP1 SWAP3 MSTORE SWAP2 SWAP3 POP PUSH1 0x0 SWAP2 SWAP1 PUSH1 0x20 DUP1 DUP4 ADD SWAP1 DUP1 CALLDATASIZE DUP4 CALLDATACOPY ADD SWAP1 POP POP SWAP1 POP DUP9 DUP2 PUSH1 0x0 DUP2 MLOAD DUP2 LT PUSH2 0x223 JUMPI PUSH4 0x4E487B71 PUSH1 0xE0 SHL PUSH1 0x0 MSTORE PUSH1 0x32 PUSH1 0x4 MSTORE PUSH1 0x24 PUSH1 0x0 REVERT JUMPDEST PUSH1 0x1 PUSH1 0x1 PUSH1 0xA0 SHL SUB SWAP1 SWAP3 AND PUSH1 0x20 SWAP3 DUP4 MUL SWAP2 SWAP1 SWAP2 ADD SWAP1 SWAP2 ADD MSTORE PUSH1 0x1 PUSH1 0x0 PUSH2 0x24B TIMESTAMP PUSH2 0x258 PUSH2 0xF66 JUMP JUMPDEST SWAP1 POP PUSH20 0xA128BA44B2738A558A1FDC06D6303D52D3CEF8C1 PUSH2 0x26D DUP12 DUP3 DUP12 PUSH2 0x627 JUMP JUMPDEST PUSH1 0x0 PUSH20 0x8F8DD7DB1BDA5ED3DA8C9DAF3BFA471C12D58486 SWAP1 POP PUSH1 0x0 DUP2 PUSH1 0x1 PUSH1 0x1 PUSH1 0xA0 SHL SUB AND PUSH4 0xDD4EBD9 DUP15 DUP15 DUP15 DUP12 DUP12 DUP12 PUSH1 0x0 DUP13 PUSH1 0x40 MLOAD DUP10 PUSH4 0xFFFFFFFF AND PUSH1 0xE0 SHL DUP2 MSTORE PUSH1 0x4 ADD PUSH2 0x2C3 SWAP9 SWAP8 SWAP7 SWAP6 SWAP5 SWAP4 SWAP3 SWAP2 SWAP1 PUSH2 0xE4B JUMP JUMPDEST PUSH1 0x20 PUSH1 0x40 MLOAD DUP1 DUP4 SUB DUP2 PUSH1 0x0 DUP8 DUP1 EXTCODESIZE ISZERO DUP1 ISZERO PUSH2 0x2DD JUMPI PUSH1 0x0 DUP1 REVERT JUMPDEST POP GAS CALL ISZERO DUP1 ISZERO PUSH2 0x2F1 JUMPI RETURNDATASIZE PUSH1 0x0 DUP1 RETURNDATACOPY RETURNDATASIZE PUSH1 0x0 REVERT JUMPDEST POP POP POP POP PUSH1 0x40 MLOAD RETURNDATASIZE PUSH1 0x1F NOT PUSH1 0x1F DUP3 ADD AND DUP3 ADD DUP1 PUSH1 0x40 MSTORE POP DUP2 ADD SWAP1 PUSH2 0x315 SWAP2 SWAP1 PUSH2 0xB61 JUMP JUMPDEST SWAP1 POP PUSH2 0x339 DUP2 PUSH1 0x40 MLOAD DUP1 PUSH1 0x60 ADD PUSH1 0x40 MSTORE DUP1 PUSH1 0x2F DUP2 MSTORE PUSH1 0x20 ADD PUSH2 0x105C PUSH1 0x2F SWAP2 CODECOPY PUSH2 0x6E9 JUMP JUMPDEST PUSH2 0x34D PUSH1 0x1 PUSH1 0x1 PUSH1 0xA0 SHL SUB DUP14 AND CALLER DUP4 PUSH2 0x732 JUMP JUMPDEST POP POP POP POP POP POP POP POP POP POP POP POP POP POP JUMP JUMPDEST PUSH1 0x40 DUP1 MLOAD DUP1 DUP3 ADD DUP3 MSTORE PUSH1 0x10 DUP2 MSTORE PUSH16 0x1A5B9A5D1A585B0818DBDB9D1C9858DD PUSH1 0x82 SHL PUSH1 0x20 DUP3 ADD MSTORE SWAP1 MLOAD PUSH4 0x70A08231 PUSH1 0xE0 SHL DUP2 MSTORE PUSH1 0x1 SWAP2 PUSH2 0x40A SWAP2 PUSH1 0x1 PUSH1 0x1 PUSH1 0xA0 SHL SUB DUP9 AND SWAP1 PUSH4 0x70A08231 SWAP1 PUSH2 0x3B5 SWAP1 ADDRESS SWAP1 PUSH1 0x4 ADD PUSH2 0xD7C JUMP JUMPDEST PUSH1 0x20 PUSH1 0x40 MLOAD DUP1 DUP4 SUB DUP2 DUP7 DUP1 EXTCODESIZE ISZERO DUP1 ISZERO PUSH2 0x3CD JUMPI PUSH1 0x0 DUP1 REVERT JUMPDEST POP GAS STATICCALL ISZERO DUP1 ISZERO PUSH2 0x3E1 JUMPI RETURNDATASIZE PUSH1 0x0 DUP1 RETURNDATACOPY RETURNDATASIZE PUSH1 0x0 REVERT JUMPDEST POP POP POP POP PUSH1 0x40 MLOAD RETURNDATASIZE PUSH1 0x1F NOT PUSH1 0x1F DUP3 ADD AND DUP3 ADD DUP1 PUSH1 0x40 MSTORE POP DUP2 ADD SWAP1 PUSH2 0x405 SWAP2 SWAP1 PUSH2 0xB61 JUMP JUMPDEST PUSH2 0x78D JUMP JUMPDEST PUSH1 0x40 MLOAD PUSH4 0x3CD0243B PUSH1 0xE1 SHL DUP2 MSTORE PUSH1 0x0 SWAP1 PUSH1 0x1 PUSH1 0x1 PUSH1 0xA0 SHL SUB DUP5 AND SWAP1 PUSH4 0x79A04876 SWAP1 PUSH2 0x43B SWAP1 CALLER SWAP1 DUP9 SWAP1 PUSH1 0x4 ADD PUSH2 0xE81 JUMP JUMPDEST PUSH1 0x40 DUP1 MLOAD DUP1 DUP4 SUB DUP2 DUP7 DUP1 EXTCODESIZE ISZERO DUP1 ISZERO PUSH2 0x452 JUMPI PUSH1 0x0 DUP1 REVERT JUMPDEST POP GAS STATICCALL ISZERO DUP1 ISZERO PUSH2 0x466 JUMPI RETURNDATASIZE PUSH1 0x0 DUP1 RETURNDATACOPY RETURNDATASIZE PUSH1 0x0 REVERT JUMPDEST POP POP POP POP PUSH1 0x40 MLOAD RETURNDATASIZE PUSH1 0x1F NOT PUSH1 0x1F DUP3 ADD AND DUP3 ADD DUP1 PUSH1 0x40 MSTORE POP DUP2 ADD SWAP1 PUSH2 0x48A SWAP2 SWAP1 PUSH2 0xB7F JUMP JUMPDEST POP SWAP1 POP PUSH2 0x496 DUP2 PUSH2 0x7D2 JUMP JUMPDEST PUSH1 0x0 PUSH2 0x4AA PUSH1 0x64 PUSH2 0x1D5 PUSH2 0x1CE DUP7 DUP4 PUSH2 0xFB1 JUMP JUMPDEST SWAP1 POP PUSH2 0x4B5 DUP2 PUSH2 0x7D2 JUMP JUMPDEST PUSH1 0x40 DUP1 MLOAD PUSH1 0x1 DUP1 DUP3 MSTORE DUP2 DUP4 ADD SWAP1 SWAP3 MSTORE PUSH1 0x0 SWAP2 PUSH1 0x20 DUP1 DUP4 ADD SWAP1 DUP1 CALLDATASIZE DUP4 CALLDATACOPY ADD SWAP1 POP POP SWAP1 POP DUP5 DUP2 PUSH1 0x0 DUP2 MLOAD DUP2 LT PUSH2 0x4F9 JUMPI PUSH4 0x4E487B71 PUSH1 0xE0 SHL PUSH1 0x0 MSTORE PUSH1 0x32 PUSH1 0x4 MSTORE PUSH1 0x24 PUSH1 0x0 REVERT JUMPDEST PUSH1 0x1 PUSH1 0x1 PUSH1 0xA0 SHL SUB SWAP1 SWAP3 AND PUSH1 0x20 SWAP3 DUP4 MUL SWAP2 SWAP1 SWAP2 ADD SWAP1 SWAP2 ADD MSTORE PUSH1 0x1 PUSH1 0x0 PUSH2 0x521 TIMESTAMP PUSH2 0x258 PUSH2 0xF66 JUMP JUMPDEST SWAP1 POP PUSH20 0x6D310348D5C12009854DFCF72E0DF9027E8CB4F4 PUSH2 0x543 DUP12 DUP3 DUP12 PUSH2 0x627 JUMP JUMPDEST PUSH1 0x0 PUSH20 0xA222E6A71D1A1DD5F279805FBE38D5329C1D0E70 SWAP1 POP PUSH1 0x0 DUP2 PUSH1 0x1 PUSH1 0x1 PUSH1 0xA0 SHL SUB AND PUSH4 0xF87DC1B7 DUP15 DUP15 DUP15 PUSH1 0x1 DUP12 DUP12 PUSH1 0x0 DUP13 PUSH1 0x40 MLOAD DUP10 PUSH4 0xFFFFFFFF AND PUSH1 0xE0 SHL DUP2 MSTORE PUSH1 0x4 ADD PUSH2 0x59A SWAP9 SWAP8 SWAP7 SWAP6 SWAP5 SWAP4 SWAP3 SWAP2 SWAP1 PUSH2 0xDCD JUMP JUMPDEST PUSH1 0x20 PUSH1 0x40 MLOAD DUP1 DUP4 SUB DUP2 PUSH1 0x0 DUP8 DUP1 EXTCODESIZE ISZERO DUP1 ISZERO PUSH2 0x5B4 JUMPI PUSH1 0x0 DUP1 REVERT JUMPDEST POP GAS CALL ISZERO DUP1 ISZERO PUSH2 0x5C8 JUMPI RETURNDATASIZE PUSH1 0x0 DUP1 RETURNDATACOPY RETURNDATASIZE PUSH1 0x0 REVERT JUMPDEST POP POP POP POP PUSH1 0x40 MLOAD RETURNDATASIZE PUSH1 0x1F NOT PUSH1 0x1F DUP3 ADD AND DUP3 ADD DUP1 PUSH1 0x40 MSTORE POP DUP2 ADD SWAP1 PUSH2 0x5EC SWAP2 SWAP1 PUSH2 0xB61 JUMP JUMPDEST SWAP1 POP PUSH2 0x5F7 DUP2 PUSH2 0x7D2 JUMP JUMPDEST POP POP POP POP POP POP POP POP POP POP POP POP POP JUMP JUMPDEST PUSH1 0x0 PUSH2 0x612 DUP3 DUP5 PUSH2 0xF92 JUMP JUMPDEST SWAP1 POP JUMPDEST SWAP3 SWAP2 POP POP JUMP JUMPDEST PUSH1 0x0 PUSH2 0x612 DUP3 DUP5 PUSH2 0xF7E JUMP JUMPDEST PUSH1 0x40 MLOAD PUSH4 0x6EB1769F PUSH1 0xE1 SHL DUP2 MSTORE PUSH1 0x0 SWAP1 PUSH1 0x1 PUSH1 0x1 PUSH1 0xA0 SHL SUB DUP6 AND SWAP1 PUSH4 0xDD62ED3E SWAP1 PUSH2 0x658 SWAP1 ADDRESS SWAP1 DUP8 SWAP1 PUSH1 0x4 ADD PUSH2 0xD8A JUMP JUMPDEST PUSH1 0x20 PUSH1 0x40 MLOAD DUP1 DUP4 SUB DUP2 DUP7 DUP1 EXTCODESIZE ISZERO DUP1 ISZERO PUSH2 0x670 JUMPI PUSH1 0x0 DUP1 REVERT JUMPDEST POP GAS STATICCALL ISZERO DUP1 ISZERO PUSH2 0x684 JUMPI RETURNDATASIZE PUSH1 0x0 DUP1 RETURNDATACOPY RETURNDATASIZE PUSH1 0x0 REVERT JUMPDEST POP POP POP POP PUSH1 0x40 MLOAD RETURNDATASIZE PUSH1 0x1F NOT PUSH1 0x1F DUP3 ADD AND DUP3 ADD DUP1 PUSH1 0x40 MSTORE POP DUP2 ADD SWAP1 PUSH2 0x6A8 SWAP2 SWAP1 PUSH2 0xB61 JUMP JUMPDEST SWAP1 POP DUP2 DUP2 LT ISZERO PUSH2 0x6E3 JUMPI DUP1 ISZERO PUSH2 0x6CD JUMPI PUSH2 0x6CD PUSH1 0x1 PUSH1 0x1 PUSH1 0xA0 SHL SUB DUP6 AND DUP5 PUSH1 0x0 PUSH2 0x818 JUMP JUMPDEST PUSH2 0x6E3 PUSH1 0x1 PUSH1 0x1 PUSH1 0xA0 SHL SUB DUP6 AND DUP5 PUSH1 0x0 NOT PUSH2 0x818 JUMP JUMPDEST POP POP POP POP JUMP JUMPDEST PUSH2 0x72E DUP3 DUP3 PUSH1 0x40 MLOAD PUSH1 0x24 ADD PUSH2 0x6FF SWAP3 SWAP2 SWAP1 PUSH2 0xF46 JUMP JUMPDEST PUSH1 0x40 DUP1 MLOAD PUSH1 0x1F NOT DUP2 DUP5 SUB ADD DUP2 MSTORE SWAP2 SWAP1 MSTORE PUSH1 0x20 DUP2 ADD DUP1 MLOAD PUSH1 0x1 PUSH1 0x1 PUSH1 0xE0 SHL SUB AND PUSH4 0x643FD0DF PUSH1 0xE0 SHL OR SWAP1 MSTORE PUSH2 0x8E4 JUMP JUMPDEST POP POP JUMP JUMPDEST PUSH2 0x788 DUP4 PUSH4 0xA9059CBB PUSH1 0xE0 SHL DUP5 DUP5 PUSH1 0x40 MLOAD PUSH1 0x24 ADD PUSH2 0x751 SWAP3 SWAP2 SWAP1 PUSH2 0xE81 JUMP JUMPDEST PUSH1 0x40 DUP1 MLOAD PUSH1 0x1F NOT DUP2 DUP5 SUB ADD DUP2 MSTORE SWAP2 SWAP1 MSTORE PUSH1 0x20 DUP2 ADD DUP1 MLOAD PUSH1 0x1 PUSH1 0x1 PUSH1 0xE0 SHL SUB AND PUSH1 0x1 PUSH1 0x1 PUSH1 0xE0 SHL SUB NOT SWAP1 SWAP4 AND SWAP3 SWAP1 SWAP3 OR SWAP1 SWAP2 MSTORE PUSH2 0x905 JUMP JUMPDEST POP POP POP JUMP JUMPDEST PUSH2 0x72E DUP3 DUP3 PUSH1 0x40 MLOAD PUSH1 0x24 ADD PUSH2 0x7A3 SWAP3 SWAP2 SWAP1 PUSH2 0xEAD JUMP JUMPDEST PUSH1 0x40 DUP1 MLOAD PUSH1 0x1F NOT DUP2 DUP5 SUB ADD DUP2 MSTORE SWAP2 SWAP1 MSTORE PUSH1 0x20 DUP2 ADD DUP1 MLOAD PUSH1 0x1 PUSH1 0x1 PUSH1 0xE0 SHL SUB AND PUSH4 0x2D839CB3 PUSH1 0xE2 SHL OR SWAP1 MSTORE PUSH2 0x8E4 JUMP JUMPDEST PUSH2 0x815 DUP2 PUSH1 0x40 MLOAD PUSH1 0x24 ADD PUSH2 0x7E6 SWAP2 SWAP1 PUSH2 0xF38 JUMP JUMPDEST PUSH1 0x40 DUP1 MLOAD PUSH1 0x1F NOT DUP2 DUP5 SUB ADD DUP2 MSTORE SWAP2 SWAP1 MSTORE PUSH1 0x20 DUP2 ADD DUP1 MLOAD PUSH1 0x1 PUSH1 0x1 PUSH1 0xE0 SHL SUB AND PUSH4 0xF82C50F1 PUSH1 0xE0 SHL OR SWAP1 MSTORE PUSH2 0x8E4 JUMP JUMPDEST POP JUMP JUMPDEST DUP1 ISZERO DUP1 PUSH2 0x8A0 JUMPI POP PUSH1 0x40 MLOAD PUSH4 0x6EB1769F PUSH1 0xE1 SHL DUP2 MSTORE PUSH1 0x1 PUSH1 0x1 PUSH1 0xA0 SHL SUB DUP5 AND SWAP1 PUSH4 0xDD62ED3E SWAP1 PUSH2 0x84E SWAP1 ADDRESS SWAP1 DUP7 SWAP1 PUSH1 0x4 ADD PUSH2 0xD8A JUMP JUMPDEST PUSH1 0x20 PUSH1 0x40 MLOAD DUP1 DUP4 SUB DUP2 DUP7 DUP1 EXTCODESIZE ISZERO DUP1 ISZERO PUSH2 0x866 JUMPI PUSH1 0x0 DUP1 REVERT JUMPDEST POP GAS STATICCALL ISZERO DUP1 ISZERO PUSH2 0x87A JUMPI RETURNDATASIZE PUSH1 0x0 DUP1 RETURNDATACOPY RETURNDATASIZE PUSH1 0x0 REVERT JUMPDEST POP POP POP POP PUSH1 0x40 MLOAD RETURNDATASIZE PUSH1 0x1F NOT PUSH1 0x1F DUP3 ADD AND DUP3 ADD DUP1 PUSH1 0x40 MSTORE POP DUP2 ADD SWAP1 PUSH2 0x89E SWAP2 SWAP1 PUSH2 0xB61 JUMP JUMPDEST ISZERO JUMPDEST PUSH2 0x8C5 JUMPI PUSH1 0x40 MLOAD PUSH3 0x461BCD PUSH1 0xE5 SHL DUP2 MSTORE PUSH1 0x4 ADD PUSH2 0x8BC SWAP1 PUSH2 0xF28 JUMP JUMPDEST PUSH1 0x40 MLOAD DUP1 SWAP2 SUB SWAP1 REVERT JUMPDEST PUSH2 0x788 DUP4 PUSH4 0x95EA7B3 PUSH1 0xE0 SHL DUP5 DUP5 PUSH1 0x40 MLOAD PUSH1 0x24 ADD PUSH2 0x751 SWAP3 SWAP2 SWAP1 PUSH2 0xE81 JUMP JUMPDEST DUP1 MLOAD PUSH11 0x636F6E736F6C652E6C6F67 PUSH1 0x20 DUP4 ADD PUSH1 0x0 DUP1 DUP5 DUP4 DUP6 GAS STATICCALL POP POP POP POP POP JUMP JUMPDEST PUSH1 0x0 PUSH2 0x95A DUP3 PUSH1 0x40 MLOAD DUP1 PUSH1 0x40 ADD PUSH1 0x40 MSTORE DUP1 PUSH1 0x20 DUP2 MSTORE PUSH1 0x20 ADD PUSH32 0x5361666545524332303A206C6F772D6C6576656C2063616C6C206661696C6564 DUP2 MSTORE POP DUP6 PUSH1 0x1 PUSH1 0x1 PUSH1 0xA0 SHL SUB AND PUSH2 0x994 SWAP1 SWAP3 SWAP2 SWAP1 PUSH4 0xFFFFFFFF AND JUMP JUMPDEST DUP1 MLOAD SWAP1 SWAP2 POP ISZERO PUSH2 0x788 JUMPI DUP1 DUP1 PUSH1 0x20 ADD SWAP1 MLOAD DUP2 ADD SWAP1 PUSH2 0x978 SWAP2 SWAP1 PUSH2 0xB43 JUMP JUMPDEST PUSH2 0x788 JUMPI PUSH1 0x40 MLOAD PUSH3 0x461BCD PUSH1 0xE5 SHL DUP2 MSTORE PUSH1 0x4 ADD PUSH2 0x8BC SWAP1 PUSH2 0xF18 JUMP JUMPDEST PUSH1 0x60 PUSH2 0x9A3 DUP5 DUP5 PUSH1 0x0 DUP6 PUSH2 0x9AD JUMP JUMPDEST SWAP1 POP JUMPDEST SWAP4 SWAP3 POP POP POP JUMP JUMPDEST PUSH1 0x60 DUP3 SELFBALANCE LT ISZERO PUSH2 0x9CF JUMPI PUSH1 0x40 MLOAD PUSH3 0x461BCD PUSH1 0xE5 SHL DUP2 MSTORE PUSH1 0x4 ADD PUSH2 0x8BC SWAP1 PUSH2 0xECD JUMP JUMPDEST PUSH1 0x0 DUP1 DUP7 PUSH1 0x1 PUSH1 0x1 PUSH1 0xA0 SHL SUB AND DUP6 DUP8 PUSH1 0x40 MLOAD PUSH2 0x9EB SWAP2 SWAP1 PUSH2 0xD70 JUMP JUMPDEST PUSH1 0x0 PUSH1 0x40 MLOAD DUP1 DUP4 SUB DUP2 DUP6 DUP8 GAS CALL SWAP3 POP POP POP RETURNDATASIZE DUP1 PUSH1 0x0 DUP2 EQ PUSH2 0xA28 JUMPI PUSH1 0x40 MLOAD SWAP2 POP PUSH1 0x1F NOT PUSH1 0x3F RETURNDATASIZE ADD AND DUP3 ADD PUSH1 0x40 MSTORE RETURNDATASIZE DUP3 MSTORE RETURNDATASIZE PUSH1 0x0 PUSH1 0x20 DUP5 ADD RETURNDATACOPY PUSH2 0xA2D JUMP JUMPDEST PUSH1 0x60 SWAP2 POP JUMPDEST POP SWAP2 POP SWAP2 POP PUSH2 0xA3E DUP8 DUP4 DUP4 DUP8 PUSH2 0xA4B JUMP JUMPDEST SWAP3 POP POP POP JUMPDEST SWAP5 SWAP4 POP POP POP POP JUMP JUMPDEST PUSH1 0x60 DUP4 ISZERO PUSH2 0xA87 JUMPI DUP3 MLOAD PUSH2 0xA80 JUMPI PUSH1 0x1 PUSH1 0x1 PUSH1 0xA0 SHL SUB DUP6 AND EXTCODESIZE PUSH2 0xA80 JUMPI PUSH1 0x40 MLOAD PUSH3 0x461BCD PUSH1 0xE5 SHL DUP2 MSTORE PUSH1 0x4 ADD PUSH2 0x8BC SWAP1 PUSH2 0xEDD JUMP JUMPDEST POP DUP2 PUSH2 0xA43 JUMP JUMPDEST PUSH2 0xA43 DUP4 DUP4 DUP2 MLOAD ISZERO PUSH2 0xA9C JUMPI DUP2 MLOAD DUP1 DUP4 PUSH1 0x20 ADD REVERT JUMPDEST DUP1 PUSH1 0x40 MLOAD PUSH3 0x461BCD PUSH1 0xE5 SHL DUP2 MSTORE PUSH1 0x4 ADD PUSH2 0x8BC SWAP2 SWAP1 PUSH2 0xE9C JUMP JUMPDEST DUP1 CALLDATALOAD PUSH2 0x615 DUP2 PUSH2 0x1039 JUMP JUMPDEST DUP1 MLOAD PUSH2 0x615 DUP2 PUSH2 0x104D JUMP JUMPDEST DUP1 CALLDATALOAD PUSH2 0x615 DUP2 PUSH2 0x1055 JUMP JUMPDEST DUP1 MLOAD PUSH2 0x615 DUP2 PUSH2 0x1055 JUMP JUMPDEST PUSH1 0x0 DUP1 PUSH1 0x0 DUP1 PUSH1 0x80 DUP6 DUP8 SUB SLT ISZERO PUSH2 0xAF8 JUMPI PUSH1 0x0 DUP1 REVERT JUMPDEST PUSH1 0x0 PUSH2 0xB04 DUP8 DUP8 PUSH2 0xAB6 JUMP JUMPDEST SWAP5 POP POP PUSH1 0x20 PUSH2 0xB15 DUP8 DUP3 DUP9 ADD PUSH2 0xAB6 JUMP JUMPDEST SWAP4 POP POP PUSH1 0x40 PUSH2 0xB26 DUP8 DUP3 DUP9 ADD PUSH2 0xACC JUMP JUMPDEST SWAP3 POP POP PUSH1 0x60 PUSH2 0xB37 DUP8 DUP3 DUP9 ADD PUSH2 0xAB6 JUMP JUMPDEST SWAP2 POP POP SWAP3 SWAP6 SWAP2 SWAP5 POP SWAP3 POP JUMP JUMPDEST PUSH1 0x0 PUSH1 0x20 DUP3 DUP5 SUB SLT ISZERO PUSH2 0xB55 JUMPI PUSH1 0x0 DUP1 REVERT JUMPDEST PUSH1 0x0 PUSH2 0xA43 DUP5 DUP5 PUSH2 0xAC1 JUMP JUMPDEST PUSH1 0x0 PUSH1 0x20 DUP3 DUP5 SUB SLT ISZERO PUSH2 0xB73 JUMPI PUSH1 0x0 DUP1 REVERT JUMPDEST PUSH1 0x0 PUSH2 0xA43 DUP5 DUP5 PUSH2 0xAD7 JUMP JUMPDEST PUSH1 0x0 DUP1 PUSH1 0x40 DUP4 DUP6 SUB SLT ISZERO PUSH2 0xB92 JUMPI PUSH1 0x0 DUP1 REVERT JUMPDEST PUSH1 0x0 PUSH2 0xB9E DUP6 DUP6 PUSH2 0xAD7 JUMP JUMPDEST SWAP3 POP POP PUSH1 0x20 PUSH2 0xBAF DUP6 DUP3 DUP7 ADD PUSH2 0xAD7 JUMP JUMPDEST SWAP2 POP POP SWAP3 POP SWAP3 SWAP1 POP JUMP JUMPDEST PUSH1 0x0 PUSH2 0xBC5 DUP4 DUP4 PUSH2 0xBCD JUMP JUMPDEST POP POP PUSH1 0x20 ADD SWAP1 JUMP JUMPDEST PUSH2 0xBD6 DUP2 PUSH2 0xFC8 JUMP JUMPDEST DUP3 MSTORE POP POP JUMP JUMPDEST PUSH1 0x0 PUSH2 0xBE6 DUP3 MLOAD SWAP1 JUMP JUMPDEST DUP1 DUP5 MSTORE PUSH1 0x20 SWAP4 DUP5 ADD SWAP4 DUP4 ADD DUP1 PUSH1 0x0 JUMPDEST DUP4 DUP2 LT ISZERO PUSH2 0xC1A JUMPI DUP2 MLOAD PUSH2 0xC09 DUP9 DUP3 PUSH2 0xBB9 JUMP JUMPDEST SWAP8 POP PUSH1 0x20 DUP4 ADD SWAP3 POP POP PUSH1 0x1 ADD PUSH2 0xBF5 JUMP JUMPDEST POP SWAP5 SWAP6 SWAP5 POP POP POP POP POP JUMP JUMPDEST DUP1 ISZERO ISZERO PUSH2 0xBD6 JUMP JUMPDEST PUSH1 0x0 PUSH2 0xC37 DUP3 MLOAD SWAP1 JUMP JUMPDEST PUSH2 0xC45 DUP2 DUP6 PUSH1 0x20 DUP7 ADD PUSH2 0xFE1 JUMP JUMPDEST SWAP3 SWAP1 SWAP3 ADD SWAP3 SWAP2 POP POP JUMP JUMPDEST PUSH2 0xBD6 DUP2 PUSH2 0xFD9 JUMP JUMPDEST PUSH1 0x0 PUSH2 0xC62 DUP3 MLOAD SWAP1 JUMP JUMPDEST DUP1 DUP5 MSTORE PUSH1 0x20 DUP5 ADD SWAP4 POP PUSH2 0xC79 DUP2 DUP6 PUSH1 0x20 DUP7 ADD PUSH2 0xFE1 JUMP JUMPDEST PUSH1 0x1F ADD PUSH1 0x1F NOT AND SWAP3 SWAP1 SWAP3 ADD SWAP3 SWAP2 POP POP JUMP JUMPDEST PUSH1 0x26 DUP2 MSTORE PUSH1 0x0 PUSH1 0x20 DUP3 ADD PUSH32 0x416464726573733A20696E73756666696369656E742062616C616E636520666F DUP2 MSTORE PUSH6 0x1C8818D85B1B PUSH1 0xD2 SHL PUSH1 0x20 DUP3 ADD MSTORE SWAP2 POP JUMPDEST POP PUSH1 0x40 ADD SWAP1 JUMP JUMPDEST PUSH1 0x2A DUP2 MSTORE PUSH1 0x0 PUSH1 0x20 DUP3 ADD PUSH32 0x5361666545524332303A204552433230206F7065726174696F6E20646964206E DUP2 MSTORE PUSH10 0x1BDD081CDD58D8D95959 PUSH1 0xB2 SHL PUSH1 0x20 DUP3 ADD MSTORE SWAP2 POP PUSH2 0xCC9 JUMP JUMPDEST PUSH1 0x36 DUP2 MSTORE PUSH1 0x0 PUSH1 0x20 DUP3 ADD PUSH32 0x5361666545524332303A20617070726F76652066726F6D206E6F6E2D7A65726F DUP2 MSTORE PUSH22 0x20746F206E6F6E2D7A65726F20616C6C6F77616E6365 PUSH1 0x50 SHL PUSH1 0x20 DUP3 ADD MSTORE SWAP2 POP PUSH2 0xCC9 JUMP JUMPDEST DUP1 PUSH2 0xBD6 JUMP JUMPDEST PUSH1 0x0 PUSH2 0x9A6 DUP3 DUP5 PUSH2 0xC2D JUMP JUMPDEST PUSH1 0x20 DUP2 ADD PUSH2 0x615 DUP3 DUP5 PUSH2 0xBCD JUMP JUMPDEST PUSH1 0x40 DUP2 ADD PUSH2 0xD98 DUP3 DUP6 PUSH2 0xBCD JUMP JUMPDEST PUSH2 0x9A6 PUSH1 0x20 DUP4 ADD DUP5 PUSH2 0xBCD JUMP JUMPDEST PUSH1 0x60 DUP2 ADD PUSH2 0xDB3 DUP3 DUP7 PUSH2 0xBCD JUMP JUMPDEST PUSH2 0xDC0 PUSH1 0x20 DUP4 ADD DUP6 PUSH2 0xBCD JUMP JUMPDEST PUSH2 0xA43 PUSH1 0x40 DUP4 ADD DUP5 PUSH2 0xD6A JUMP JUMPDEST PUSH2 0x100 DUP2 ADD PUSH2 0xDDC DUP3 DUP12 PUSH2 0xBCD JUMP JUMPDEST PUSH2 0xDE9 PUSH1 0x20 DUP4 ADD DUP11 PUSH2 0xBCD JUMP JUMPDEST PUSH2 0xDF6 PUSH1 0x40 DUP4 ADD DUP10 PUSH2 0xD6A JUMP JUMPDEST PUSH2 0xE03 PUSH1 0x60 DUP4 ADD DUP9 PUSH2 0xC4F JUMP JUMPDEST DUP2 DUP2 SUB PUSH1 0x80 DUP4 ADD MSTORE PUSH2 0xE15 DUP2 DUP8 PUSH2 0xBDC JUMP JUMPDEST SWAP1 POP PUSH2 0xE24 PUSH1 0xA0 DUP4 ADD DUP7 PUSH2 0xD6A JUMP JUMPDEST PUSH2 0xE31 PUSH1 0xC0 DUP4 ADD DUP6 PUSH2 0xC25 JUMP JUMPDEST PUSH2 0xE3E PUSH1 0xE0 DUP4 ADD DUP5 PUSH2 0xD6A JUMP JUMPDEST SWAP10 SWAP9 POP POP POP POP POP POP POP POP POP JUMP JUMPDEST PUSH2 0x100 DUP2 ADD PUSH2 0xE5A DUP3 DUP12 PUSH2 0xBCD JUMP JUMPDEST PUSH2 0xE67 PUSH1 0x20 DUP4 ADD DUP11 PUSH2 0xBCD JUMP JUMPDEST PUSH2 0xE74 PUSH1 0x40 DUP4 ADD DUP10 PUSH2 0xD6A JUMP JUMPDEST PUSH2 0xE03 PUSH1 0x60 DUP4 ADD DUP9 PUSH2 0xD6A JUMP JUMPDEST PUSH1 0x40 DUP2 ADD PUSH2 0xE8F DUP3 DUP6 PUSH2 0xBCD JUMP JUMPDEST PUSH2 0x9A6 PUSH1 0x20 DUP4 ADD DUP5 PUSH2 0xD6A JUMP JUMPDEST PUSH1 0x20 DUP1 DUP3 MSTORE DUP2 ADD PUSH2 0x612 DUP2 DUP5 PUSH2 0xC58 JUMP JUMPDEST PUSH1 0x40 DUP1 DUP3 MSTORE DUP2 ADD PUSH2 0xEBE DUP2 DUP6 PUSH2 0xC58 JUMP JUMPDEST SWAP1 POP PUSH2 0x9A6 PUSH1 0x20 DUP4 ADD DUP5 PUSH2 0xD6A JUMP JUMPDEST PUSH1 0x20 DUP1 DUP3 MSTORE DUP2 ADD PUSH2 0x615 DUP2 PUSH2 0xC8A JUMP JUMPDEST PUSH1 0x20 DUP1 DUP3 MSTORE DUP2 ADD PUSH2 0x615 DUP2 PUSH1 0x1D DUP2 MSTORE PUSH32 0x416464726573733A2063616C6C20746F206E6F6E2D636F6E7472616374000000 PUSH1 0x20 DUP3 ADD MSTORE PUSH1 0x40 ADD SWAP1 JUMP JUMPDEST PUSH1 0x20 DUP1 DUP3 MSTORE DUP2 ADD PUSH2 0x615 DUP2 PUSH2 0xCD0 JUMP JUMPDEST PUSH1 0x20 DUP1 DUP3 MSTORE DUP2 ADD PUSH2 0x615 DUP2 PUSH2 0xD17 JUMP JUMPDEST PUSH1 0x20 DUP2 ADD PUSH2 0x615 DUP3 DUP5 PUSH2 0xD6A JUMP JUMPDEST PUSH1 0x40 DUP2 ADD PUSH2 0xF54 DUP3 DUP6 PUSH2 0xD6A JUMP JUMPDEST DUP2 DUP2 SUB PUSH1 0x20 DUP4 ADD MSTORE PUSH2 0x9A3 DUP2 DUP5 PUSH2 0xC58 JUMP JUMPDEST PUSH1 0x0 DUP3 NOT DUP3 GT ISZERO PUSH2 0xF79 JUMPI PUSH2 0xF79 PUSH2 0x100D JUMP JUMPDEST POP ADD SWAP1 JUMP JUMPDEST PUSH1 0x0 DUP3 PUSH2 0xF8D JUMPI PUSH2 0xF8D PUSH2 0x1023 JUMP JUMPDEST POP DIV SWAP1 JUMP JUMPDEST PUSH1 0x0 DUP2 PUSH1 0x0 NOT DIV DUP4 GT DUP3 ISZERO ISZERO AND ISZERO PUSH2 0xFAC JUMPI PUSH2 0xFAC PUSH2 0x100D JUMP JUMPDEST POP MUL SWAP1 JUMP JUMPDEST PUSH1 0x0 DUP3 DUP3 LT ISZERO PUSH2 0xFC3 JUMPI PUSH2 0xFC3 PUSH2 0x100D JUMP JUMPDEST POP SUB SWAP1 JUMP JUMPDEST PUSH1 0x0 PUSH1 0x1 PUSH1 0x1 PUSH1 0xA0 SHL SUB DUP3 AND PUSH2 0x615 JUMP JUMPDEST PUSH1 0x0 DUP2 PUSH2 0x615 JUMP JUMPDEST PUSH1 0x0 JUMPDEST DUP4 DUP2 LT ISZERO PUSH2 0xFFC JUMPI DUP2 DUP2 ADD MLOAD DUP4 DUP3 ADD MSTORE PUSH1 0x20 ADD PUSH2 0xFE4 JUMP JUMPDEST DUP4 DUP2 GT ISZERO PUSH2 0x6E3 JUMPI POP POP PUSH1 0x0 SWAP2 ADD MSTORE JUMP JUMPDEST PUSH4 0x4E487B71 PUSH1 0xE0 SHL PUSH1 0x0 MSTORE PUSH1 0x11 PUSH1 0x4 MSTORE PUSH1 0x24 PUSH1 0x0 REVERT JUMPDEST PUSH4 0x4E487B71 PUSH1 0xE0 SHL PUSH1 0x0 MSTORE PUSH1 0x12 PUSH1 0x4 MSTORE PUSH1 0x24 PUSH1 0x0 REVERT JUMPDEST PUSH2 0x1042 DUP2 PUSH2 0xFC8 JUMP JUMPDEST DUP2 EQ PUSH2 0x815 JUMPI PUSH1 0x0 DUP1 REVERT JUMPDEST DUP1 ISZERO ISZERO PUSH2 0x1042 JUMP JUMPDEST DUP1 PUSH2 0x1042 JUMP INVALID PUSH19 0x657475726E616D6F756E745F5F5F5F5F5F5F5F 0x5F 0x5F 0x5F 0x5F 0x5F 0x5F 0x5F 0x5F 0x5F 0x5F 0x5F 0x5F 0x5F 0x5F 0x5F 0x5F 0x5F 0x5F 0x5F 0x5F 0x5F 0x5F 0x5F 0x5F 0x5F 0x5F 0x5F LOG2 PUSH5 0x6970667358 0x22 SLT KECCAK256 GASPRICE PUSH16 0x24A3D46E3D650F9494937B4C725814C6 DIV 0x28 0x27 SWAP8 0x24 0x2E PUSH5 0x72977CEB3E 0x24 CALLDATACOPY PUSH5 0x736F6C6343 STOP ADDMOD DIV STOP CALLER "},"methodIdentifiers":{"useDodoSwapV1()":"25765d92","useDodoSwapV2(address,address,uint256,address)":"6a7b0768"}},"storageLayout":{"storage":[],"types":null}}}}