{"contracts/DODOProxyIntegrate.sol":{"DODOProxyIntegrate":{"abi":[{"inputs":[],"name":"useDodoSwapV1","outputs":[],"stateMutability":"nonpayable","type":"function"},{"inputs":[{"internalType":"address","name":"fromToken","type":"address"},{"internalType":"address","name":"toToken","type":"address"},{"internalType":"uint256","name":"fromTokenAmount","type":"uint256"},{"internalType":"address","name":"dodoV2Pool","type":"address"}],"name":"useDodoSwapV2","outputs":[],"stateMutability":"nonpayable","type":"function"}],"evm":{"bytecode":{"linkReferences":{},"object":"608060405234801561001057600080fd5b5061100a806100206000396000f3fe608060405234801561001057600080fd5b50600436106100365760003560e01c806325765d921461003b5780636a7b076814610045575b600080fd5b610043610058565b005b610043610053366004610a7b565b61033b565b6040516323b872dd60e01b815273be60d4c4250438344bec816ec2dec99925deb4c7907355d398326f99059ff775485246999027b31979559073e9e7cea3dedca5984780bafc599bd69add087d5690670de0b6b3a764000090600190730f859706aee7fcf61d5a8939e8cb9dbb6c1eda339085906323b872dd906100e490339030908890600401610d3e565b602060405180830381600087803b1580156100fe57600080fd5b505af1158015610112573d6000803e3d6000fd5b505050506040513d601f19601f820116820180604052508101906101369190610adc565b5060405163ca19ebd960e01b81526000906001600160a01b0383169063ca19ebd990610168908a908890600401610e1a565b60206040518083038186803b15801561018057600080fd5b505afa158015610194573d6000803e3d6000fd5b505050506040513d601f19601f820116820180604052508101906101b89190610afa565b905060006101db60646101d56101ce8783610f2a565b85906105e4565b906105f9565b6040805160018082528183019092529192506000919060208083019080368337019050509050888160008151811061022357634e487b7160e01b600052603260045260246000fd5b6001600160a01b03909216602092830291909101909101526001600061024b42610258610edf565b905073a128ba44b2738a558a1fdc06d6303d52d3cef8c161026d8b828b610605565b6000738f8dd7db1bda5ed3da8c9daf3bfa471c12d5848690506000816001600160a01b0316630dd4ebd98e8e8e8b8b8b60008c6040518963ffffffff1660e01b81526004016102c3989796959493929190610de4565b602060405180830381600087803b1580156102dd57600080fd5b505af11580156102f1573d6000803e3d6000fd5b505050506040513d601f19601f820116820180604052508101906103159190610afa565b905061032b6001600160a01b038d1633836106c7565b5050505050505050505050505050565b604080518082018252601081526f1a5b9a5d1a585b0818dbdb9d1c9858dd60821b602082015290516370a0823160e01b81526001916103e8916001600160a01b038816906370a0823190610393903090600401610d15565b60206040518083038186803b1580156103ab57600080fd5b505afa1580156103bf573d6000803e3d6000fd5b505050506040513d601f19601f820116820180604052508101906103e39190610afa565b610722565b604051633cd0243b60e11b81526000906001600160a01b038416906379a04876906104199033908890600401610e1a565b604080518083038186803b15801561043057600080fd5b505afa158015610444573d6000803e3d6000fd5b505050506040513d601f19601f820116820180604052508101906104689190610b18565b5090506104748161076b565b600061048860646101d56101ce8683610f2a565b90506104938161076b565b6040805160018082528183019092526000916020808301908036833701905050905084816000815181106104d757634e487b7160e01b600052603260045260246000fd5b6001600160a01b0390921660209283029190910190910152600160006104ff42610258610edf565b9050736d310348d5c12009854dfcf72e0df9027e8cb4f46105218b828b610605565b600073a222e6a71d1a1dd5f279805fbe38d5329c1d0e7090506000816001600160a01b031663f87dc1b78e8e8e60018b8b60008c6040518963ffffffff1660e01b8152600401610578989796959493929190610d66565b602060405180830381600087803b15801561059257600080fd5b505af11580156105a6573d6000803e3d6000fd5b505050506040513d601f19601f820116820180604052508101906105ca9190610afa565b90506105d58161076b565b50505050505050505050505050565b60006105f08284610f0b565b90505b92915050565b60006105f08284610ef7565b604051636eb1769f60e11b81526000906001600160a01b0385169063dd62ed3e906106369030908790600401610d23565b60206040518083038186803b15801561064e57600080fd5b505afa158015610662573d6000803e3d6000fd5b505050506040513d601f19601f820116820180604052508101906106869190610afa565b9050818110156106c15780156106ab576106ab6001600160a01b0385168460006107b1565b6106c16001600160a01b038516846000196107b1565b50505050565b61071d8363a9059cbb60e01b84846040516024016106e6929190610e1a565b60408051601f198184030181529190526020810180516001600160e01b03166001600160e01b03199093169290921790915261087d565b505050565b6107678282604051602401610738929190610e46565b60408051601f198184030181529190526020810180516001600160e01b0316632d839cb360e21b17905261090c565b5050565b6107ae8160405160240161077f9190610ed1565b60408051601f198184030181529190526020810180516001600160e01b031663f82c50f160e01b17905261090c565b50565b8015806108395750604051636eb1769f60e11b81526001600160a01b0384169063dd62ed3e906107e79030908690600401610d23565b60206040518083038186803b1580156107ff57600080fd5b505afa158015610813573d6000803e3d6000fd5b505050506040513d601f19601f820116820180604052508101906108379190610afa565b155b61085e5760405162461bcd60e51b815260040161085590610ec1565b60405180910390fd5b61071d8363095ea7b360e01b84846040516024016106e6929190610e1a565b60006108d2826040518060400160405280602081526020017f5361666545524332303a206c6f772d6c6576656c2063616c6c206661696c6564815250856001600160a01b031661092d9092919063ffffffff16565b80519091501561071d57808060200190518101906108f09190610adc565b61071d5760405162461bcd60e51b815260040161085590610eb1565b80516a636f6e736f6c652e6c6f67602083016000808483855afa5050505050565b606061093c8484600085610946565b90505b9392505050565b6060824710156109685760405162461bcd60e51b815260040161085590610e66565b600080866001600160a01b031685876040516109849190610d09565b60006040518083038185875af1925050503d80600081146109c1576040519150601f19603f3d011682016040523d82523d6000602084013e6109c6565b606091505b50915091506109d7878383876109e4565b925050505b949350505050565b60608315610a20578251610a19576001600160a01b0385163b610a195760405162461bcd60e51b815260040161085590610e76565b50816109dc565b6109dc8383815115610a355781518083602001fd5b8060405162461bcd60e51b81526004016108559190610e35565b80356105f381610fb2565b80516105f381610fc6565b80356105f381610fce565b80516105f381610fce565b60008060008060808587031215610a9157600080fd5b6000610a9d8787610a4f565b9450506020610aae87828801610a4f565b9350506040610abf87828801610a65565b9250506060610ad087828801610a4f565b91505092959194509250565b600060208284031215610aee57600080fd5b60006109dc8484610a5a565b600060208284031215610b0c57600080fd5b60006109dc8484610a70565b60008060408385031215610b2b57600080fd5b6000610b378585610a70565b9250506020610b4885828601610a70565b9150509250929050565b6000610b5e8383610b66565b505060200190565b610b6f81610f41565b82525050565b6000610b7f825190565b80845260209384019383018060005b83811015610bb3578151610ba28882610b52565b975060208301925050600101610b8e565b509495945050505050565b801515610b6f565b6000610bd0825190565b610bde818560208601610f5a565b9290920192915050565b610b6f81610f52565b6000610bfb825190565b808452602084019350610c12818560208601610f5a565b601f01601f19169290920192915050565b602681526000602082017f416464726573733a20696e73756666696369656e742062616c616e636520666f8152651c8818d85b1b60d21b602082015291505b5060400190565b602a81526000602082017f5361666545524332303a204552433230206f7065726174696f6e20646964206e8152691bdd081cdd58d8d9595960b21b60208201529150610c62565b603681526000602082017f5361666545524332303a20617070726f76652066726f6d206e6f6e2d7a65726f81527520746f206e6f6e2d7a65726f20616c6c6f77616e636560501b60208201529150610c62565b80610b6f565b600061093f8284610bc6565b602081016105f38284610b66565b60408101610d318285610b66565b61093f6020830184610b66565b60608101610d4c8286610b66565b610d596020830185610b66565b6109dc6040830184610d03565b6101008101610d75828b610b66565b610d82602083018a610b66565b610d8f6040830189610d03565b610d9c6060830188610be8565b8181036080830152610dae8187610b75565b9050610dbd60a0830186610d03565b610dca60c0830185610bbe565b610dd760e0830184610d03565b9998505050505050505050565b6101008101610df3828b610b66565b610e00602083018a610b66565b610e0d6040830189610d03565b610d9c6060830188610d03565b60408101610e288285610b66565b61093f6020830184610d03565b602080825281016105f08184610bf1565b60408082528101610e578185610bf1565b905061093f6020830184610d03565b602080825281016105f381610c23565b602080825281016105f381601d81527f416464726573733a2063616c6c20746f206e6f6e2d636f6e7472616374000000602082015260400190565b602080825281016105f381610c69565b602080825281016105f381610cb0565b602081016105f38284610d03565b60008219821115610ef257610ef2610f86565b500190565b600082610f0657610f06610f9c565b500490565b6000816000190483118215151615610f2557610f25610f86565b500290565b600082821015610f3c57610f3c610f86565b500390565b60006001600160a01b0382166105f3565b6000816105f3565b60005b83811015610f75578181015183820152602001610f5d565b838111156106c15750506000910152565b634e487b7160e01b600052601160045260246000fd5b634e487b7160e01b600052601260045260246000fd5b610fbb81610f41565b81146107ae57600080fd5b801515610fbb565b80610fbb56fea2646970667358221220139dedc831ab27d4056b84f3b916f524ee62f04e236a2f250d190dbbb9a24b7d64736f6c63430008040033","opcodes":"PUSH1 0x80 PUSH1 0x40 MSTORE CALLVALUE DUP1 ISZERO PUSH2 0x10 JUMPI PUSH1 0x0 DUP1 REVERT JUMPDEST POP PUSH2 0x100A DUP1 PUSH2 0x20 PUSH1 0x0 CODECOPY PUSH1 0x0 RETURN INVALID PUSH1 0x80 PUSH1 0x40 MSTORE CALLVALUE DUP1 ISZERO PUSH2 0x10 JUMPI PUSH1 0x0 DUP1 REVERT JUMPDEST POP PUSH1 0x4 CALLDATASIZE LT PUSH2 0x36 JUMPI PUSH1 0x0 CALLDATALOAD PUSH1 0xE0 SHR DUP1 PUSH4 0x25765D92 EQ PUSH2 0x3B JUMPI DUP1 PUSH4 0x6A7B0768 EQ PUSH2 0x45 JUMPI JUMPDEST PUSH1 0x0 DUP1 REVERT JUMPDEST PUSH2 0x43 PUSH2 0x58 JUMP JUMPDEST STOP JUMPDEST PUSH2 0x43 PUSH2 0x53 CALLDATASIZE PUSH1 0x4 PUSH2 0xA7B JUMP JUMPDEST PUSH2 0x33B JUMP JUMPDEST PUSH1 0x40 MLOAD PUSH4 0x23B872DD PUSH1 0xE0 SHL DUP2 MSTORE PUSH20 0xBE60D4C4250438344BEC816EC2DEC99925DEB4C7 SWAP1 PUSH20 0x55D398326F99059FF775485246999027B3197955 SWAP1 PUSH20 0xE9E7CEA3DEDCA5984780BAFC599BD69ADD087D56 SWAP1 PUSH8 0xDE0B6B3A7640000 SWAP1 PUSH1 0x1 SWAP1 PUSH20 0xF859706AEE7FCF61D5A8939E8CB9DBB6C1EDA33 SWAP1 DUP6 SWAP1 PUSH4 0x23B872DD SWAP1 PUSH2 0xE4 SWAP1 CALLER SWAP1 ADDRESS SWAP1 DUP9 SWAP1 PUSH1 0x4 ADD PUSH2 0xD3E JUMP JUMPDEST PUSH1 0x20 PUSH1 0x40 MLOAD DUP1 DUP4 SUB DUP2 PUSH1 0x0 DUP8 DUP1 EXTCODESIZE ISZERO DUP1 ISZERO PUSH2 0xFE JUMPI PUSH1 0x0 DUP1 REVERT JUMPDEST POP GAS CALL ISZERO DUP1 ISZERO PUSH2 0x112 JUMPI RETURNDATASIZE PUSH1 0x0 DUP1 RETURNDATACOPY RETURNDATASIZE PUSH1 0x0 REVERT JUMPDEST POP POP POP POP PUSH1 0x40 MLOAD RETURNDATASIZE PUSH1 0x1F NOT PUSH1 0x1F DUP3 ADD AND DUP3 ADD DUP1 PUSH1 0x40 MSTORE POP DUP2 ADD SWAP1 PUSH2 0x136 SWAP2 SWAP1 PUSH2 0xADC JUMP JUMPDEST POP PUSH1 0x40 MLOAD PUSH4 0xCA19EBD9 PUSH1 0xE0 SHL DUP2 MSTORE PUSH1 0x0 SWAP1 PUSH1 0x1 PUSH1 0x1 PUSH1 0xA0 SHL SUB DUP4 AND SWAP1 PUSH4 0xCA19EBD9 SWAP1 PUSH2 0x168 SWAP1 DUP11 SWAP1 DUP9 SWAP1 PUSH1 0x4 ADD PUSH2 0xE1A JUMP JUMPDEST PUSH1 0x20 PUSH1 0x40 MLOAD DUP1 DUP4 SUB DUP2 DUP7 DUP1 EXTCODESIZE ISZERO DUP1 ISZERO PUSH2 0x180 JUMPI PUSH1 0x0 DUP1 REVERT JUMPDEST POP GAS STATICCALL ISZERO DUP1 ISZERO PUSH2 0x194 JUMPI RETURNDATASIZE PUSH1 0x0 DUP1 RETURNDATACOPY RETURNDATASIZE PUSH1 0x0 REVERT JUMPDEST POP POP POP POP PUSH1 0x40 MLOAD RETURNDATASIZE PUSH1 0x1F NOT PUSH1 0x1F DUP3 ADD AND DUP3 ADD DUP1 PUSH1 0x40 MSTORE POP DUP2 ADD SWAP1 PUSH2 0x1B8 SWAP2 SWAP1 PUSH2 0xAFA JUMP JUMPDEST SWAP1 POP PUSH1 0x0 PUSH2 0x1DB PUSH1 0x64 PUSH2 0x1D5 PUSH2 0x1CE DUP8 DUP4 PUSH2 0xF2A JUMP JUMPDEST DUP6 SWAP1 PUSH2 0x5E4 JUMP JUMPDEST SWAP1 PUSH2 0x5F9 JUMP JUMPDEST PUSH1 0x40 DUP1 MLOAD PUSH1 0x1 DUP1 DUP3 MSTORE DUP2 DUP4 ADD SWAP1 SWAP3 MSTORE SWAP2 SWAP3 POP PUSH1 0x0 SWAP2 SWAP1 PUSH1 0x20 DUP1 DUP4 ADD SWAP1 DUP1 CALLDATASIZE DUP4 CALLDATACOPY ADD SWAP1 POP POP SWAP1 POP DUP9 DUP2 PUSH1 0x0 DUP2 MLOAD DUP2 LT PUSH2 0x223 JUMPI PUSH4 0x4E487B71 PUSH1 0xE0 SHL PUSH1 0x0 MSTORE PUSH1 0x32 PUSH1 0x4 MSTORE PUSH1 0x24 PUSH1 0x0 REVERT JUMPDEST PUSH1 0x1 PUSH1 0x1 PUSH1 0xA0 SHL SUB SWAP1 SWAP3 AND PUSH1 0x20 SWAP3 DUP4 MUL SWAP2 SWAP1 SWAP2 ADD SWAP1 SWAP2 ADD MSTORE PUSH1 0x1 PUSH1 0x0 PUSH2 0x24B TIMESTAMP PUSH2 0x258 PUSH2 0xEDF JUMP JUMPDEST SWAP1 POP PUSH20 0xA128BA44B2738A558A1FDC06D6303D52D3CEF8C1 PUSH2 0x26D DUP12 DUP3 DUP12 PUSH2 0x605 JUMP JUMPDEST PUSH1 0x0 PUSH20 0x8F8DD7DB1BDA5ED3DA8C9DAF3BFA471C12D58486 SWAP1 POP PUSH1 0x0 DUP2 PUSH1 0x1 PUSH1 0x1 PUSH1 0xA0 SHL SUB AND PUSH4 0xDD4EBD9 DUP15 DUP15 DUP15 DUP12 DUP12 DUP12 PUSH1 0x0 DUP13 PUSH1 0x40 MLOAD DUP10 PUSH4 0xFFFFFFFF AND PUSH1 0xE0 SHL DUP2 MSTORE PUSH1 0x4 ADD PUSH2 0x2C3 SWAP9 SWAP8 SWAP7 SWAP6 SWAP5 SWAP4 SWAP3 SWAP2 SWAP1 PUSH2 0xDE4 JUMP JUMPDEST PUSH1 0x20 PUSH1 0x40 MLOAD DUP1 DUP4 SUB DUP2 PUSH1 0x0 DUP8 DUP1 EXTCODESIZE ISZERO DUP1 ISZERO PUSH2 0x2DD JUMPI PUSH1 0x0 DUP1 REVERT JUMPDEST POP GAS CALL ISZERO DUP1 ISZERO PUSH2 0x2F1 JUMPI RETURNDATASIZE PUSH1 0x0 DUP1 RETURNDATACOPY RETURNDATASIZE PUSH1 0x0 REVERT JUMPDEST POP POP POP POP PUSH1 0x40 MLOAD RETURNDATASIZE PUSH1 0x1F NOT PUSH1 0x1F DUP3 ADD AND DUP3 ADD DUP1 PUSH1 0x40 MSTORE POP DUP2 ADD SWAP1 PUSH2 0x315 SWAP2 SWAP1 PUSH2 0xAFA JUMP JUMPDEST SWAP1 POP PUSH2 0x32B PUSH1 0x1 PUSH1 0x1 PUSH1 0xA0 SHL SUB DUP14 AND CALLER DUP4 PUSH2 0x6C7 JUMP JUMPDEST POP POP POP POP POP POP POP POP POP POP POP POP POP POP JUMP JUMPDEST PUSH1 0x40 DUP1 MLOAD DUP1 DUP3 ADD DUP3 MSTORE PUSH1 0x10 DUP2 MSTORE PUSH16 0x1A5B9A5D1A585B0818DBDB9D1C9858DD PUSH1 0x82 SHL PUSH1 0x20 DUP3 ADD MSTORE SWAP1 MLOAD PUSH4 0x70A08231 PUSH1 0xE0 SHL DUP2 MSTORE PUSH1 0x1 SWAP2 PUSH2 0x3E8 SWAP2 PUSH1 0x1 PUSH1 0x1 PUSH1 0xA0 SHL SUB DUP9 AND SWAP1 PUSH4 0x70A08231 SWAP1 PUSH2 0x393 SWAP1 ADDRESS SWAP1 PUSH1 0x4 ADD PUSH2 0xD15 JUMP JUMPDEST PUSH1 0x20 PUSH1 0x40 MLOAD DUP1 DUP4 SUB DUP2 DUP7 DUP1 EXTCODESIZE ISZERO DUP1 ISZERO PUSH2 0x3AB JUMPI PUSH1 0x0 DUP1 REVERT JUMPDEST POP GAS STATICCALL ISZERO DUP1 ISZERO PUSH2 0x3BF JUMPI RETURNDATASIZE PUSH1 0x0 DUP1 RETURNDATACOPY RETURNDATASIZE PUSH1 0x0 REVERT JUMPDEST POP POP POP POP PUSH1 0x40 MLOAD RETURNDATASIZE PUSH1 0x1F NOT PUSH1 0x1F DUP3 ADD AND DUP3 ADD DUP1 PUSH1 0x40 MSTORE POP DUP2 ADD SWAP1 PUSH2 0x3E3 SWAP2 SWAP1 PUSH2 0xAFA JUMP JUMPDEST PUSH2 0x722 JUMP JUMPDEST PUSH1 0x40 MLOAD PUSH4 0x3CD0243B PUSH1 0xE1 SHL DUP2 MSTORE PUSH1 0x0 SWAP1 PUSH1 0x1 PUSH1 0x1 PUSH1 0xA0 SHL SUB DUP5 AND SWAP1 PUSH4 0x79A04876 SWAP1 PUSH2 0x419 SWAP1 CALLER SWAP1 DUP9 SWAP1 PUSH1 0x4 ADD PUSH2 0xE1A JUMP JUMPDEST PUSH1 0x40 DUP1 MLOAD DUP1 DUP4 SUB DUP2 DUP7 DUP1 EXTCODESIZE ISZERO DUP1 ISZERO PUSH2 0x430 JUMPI PUSH1 0x0 DUP1 REVERT JUMPDEST POP GAS STATICCALL ISZERO DUP1 ISZERO PUSH2 0x444 JUMPI RETURNDATASIZE PUSH1 0x0 DUP1 RETURNDATACOPY RETURNDATASIZE PUSH1 0x0 REVERT JUMPDEST POP POP POP POP PUSH1 0x40 MLOAD RETURNDATASIZE PUSH1 0x1F NOT PUSH1 0x1F DUP3 ADD AND DUP3 ADD DUP1 PUSH1 0x40 MSTORE POP DUP2 ADD SWAP1 PUSH2 0x468 SWAP2 SWAP1 PUSH2 0xB18 JUMP JUMPDEST POP SWAP1 POP PUSH2 0x474 DUP2 PUSH2 0x76B JUMP JUMPDEST PUSH1 0x0 PUSH2 0x488 PUSH1 0x64 PUSH2 0x1D5 PUSH2 0x1CE DUP7 DUP4 PUSH2 0xF2A JUMP JUMPDEST SWAP1 POP PUSH2 0x493 DUP2 PUSH2 0x76B JUMP JUMPDEST PUSH1 0x40 DUP1 MLOAD PUSH1 0x1 DUP1 DUP3 MSTORE DUP2 DUP4 ADD SWAP1 SWAP3 MSTORE PUSH1 0x0 SWAP2 PUSH1 0x20 DUP1 DUP4 ADD SWAP1 DUP1 CALLDATASIZE DUP4 CALLDATACOPY ADD SWAP1 POP POP SWAP1 POP DUP5 DUP2 PUSH1 0x0 DUP2 MLOAD DUP2 LT PUSH2 0x4D7 JUMPI PUSH4 0x4E487B71 PUSH1 0xE0 SHL PUSH1 0x0 MSTORE PUSH1 0x32 PUSH1 0x4 MSTORE PUSH1 0x24 PUSH1 0x0 REVERT JUMPDEST PUSH1 0x1 PUSH1 0x1 PUSH1 0xA0 SHL SUB SWAP1 SWAP3 AND PUSH1 0x20 SWAP3 DUP4 MUL SWAP2 SWAP1 SWAP2 ADD SWAP1 SWAP2 ADD MSTORE PUSH1 0x1 PUSH1 0x0 PUSH2 0x4FF TIMESTAMP PUSH2 0x258 PUSH2 0xEDF JUMP JUMPDEST SWAP1 POP PUSH20 0x6D310348D5C12009854DFCF72E0DF9027E8CB4F4 PUSH2 0x521 DUP12 DUP3 DUP12 PUSH2 0x605 JUMP JUMPDEST PUSH1 0x0 PUSH20 0xA222E6A71D1A1DD5F279805FBE38D5329C1D0E70 SWAP1 POP PUSH1 0x0 DUP2 PUSH1 0x1 PUSH1 0x1 PUSH1 0xA0 SHL SUB AND PUSH4 0xF87DC1B7 DUP15 DUP15 DUP15 PUSH1 0x1 DUP12 DUP12 PUSH1 0x0 DUP13 PUSH1 0x40 MLOAD DUP10 PUSH4 0xFFFFFFFF AND PUSH1 0xE0 SHL DUP2 MSTORE PUSH1 0x4 ADD PUSH2 0x578 SWAP9 SWAP8 SWAP7 SWAP6 SWAP5 SWAP4 SWAP3 SWAP2 SWAP1 PUSH2 0xD66 JUMP JUMPDEST PUSH1 0x20 PUSH1 0x40 MLOAD DUP1 DUP4 SUB DUP2 PUSH1 0x0 DUP8 DUP1 EXTCODESIZE ISZERO DUP1 ISZERO PUSH2 0x592 JUMPI PUSH1 0x0 DUP1 REVERT JUMPDEST POP GAS CALL ISZERO DUP1 ISZERO PUSH2 0x5A6 JUMPI RETURNDATASIZE PUSH1 0x0 DUP1 RETURNDATACOPY RETURNDATASIZE PUSH1 0x0 REVERT JUMPDEST POP POP POP POP PUSH1 0x40 MLOAD RETURNDATASIZE PUSH1 0x1F NOT PUSH1 0x1F DUP3 ADD AND DUP3 ADD DUP1 PUSH1 0x40 MSTORE POP DUP2 ADD SWAP1 PUSH2 0x5CA SWAP2 SWAP1 PUSH2 0xAFA JUMP JUMPDEST SWAP1 POP PUSH2 0x5D5 DUP2 PUSH2 0x76B JUMP JUMPDEST POP POP POP POP POP POP POP POP POP POP POP POP POP JUMP JUMPDEST PUSH1 0x0 PUSH2 0x5F0 DUP3 DUP5 PUSH2 0xF0B JUMP JUMPDEST SWAP1 POP JUMPDEST SWAP3 SWAP2 POP POP JUMP JUMPDEST PUSH1 0x0 PUSH2 0x5F0 DUP3 DUP5 PUSH2 0xEF7 JUMP JUMPDEST PUSH1 0x40 MLOAD PUSH4 0x6EB1769F PUSH1 0xE1 SHL DUP2 MSTORE PUSH1 0x0 SWAP1 PUSH1 0x1 PUSH1 0x1 PUSH1 0xA0 SHL SUB DUP6 AND SWAP1 PUSH4 0xDD62ED3E SWAP1 PUSH2 0x636 SWAP1 ADDRESS SWAP1 DUP8 SWAP1 PUSH1 0x4 ADD PUSH2 0xD23 JUMP JUMPDEST PUSH1 0x20 PUSH1 0x40 MLOAD DUP1 DUP4 SUB DUP2 DUP7 DUP1 EXTCODESIZE ISZERO DUP1 ISZERO PUSH2 0x64E JUMPI PUSH1 0x0 DUP1 REVERT JUMPDEST POP GAS STATICCALL ISZERO DUP1 ISZERO PUSH2 0x662 JUMPI RETURNDATASIZE PUSH1 0x0 DUP1 RETURNDATACOPY RETURNDATASIZE PUSH1 0x0 REVERT JUMPDEST POP POP POP POP PUSH1 0x40 MLOAD RETURNDATASIZE PUSH1 0x1F NOT PUSH1 0x1F DUP3 ADD AND DUP3 ADD DUP1 PUSH1 0x40 MSTORE POP DUP2 ADD SWAP1 PUSH2 0x686 SWAP2 SWAP1 PUSH2 0xAFA JUMP JUMPDEST SWAP1 POP DUP2 DUP2 LT ISZERO PUSH2 0x6C1 JUMPI DUP1 ISZERO PUSH2 0x6AB JUMPI PUSH2 0x6AB PUSH1 0x1 PUSH1 0x1 PUSH1 0xA0 SHL SUB DUP6 AND DUP5 PUSH1 0x0 PUSH2 0x7B1 JUMP JUMPDEST PUSH2 0x6C1 PUSH1 0x1 PUSH1 0x1 PUSH1 0xA0 SHL SUB DUP6 AND DUP5 PUSH1 0x0 NOT PUSH2 0x7B1 JUMP JUMPDEST POP POP POP POP JUMP JUMPDEST PUSH2 0x71D DUP4 PUSH4 0xA9059CBB PUSH1 0xE0 SHL DUP5 DUP5 PUSH1 0x40 MLOAD PUSH1 0x24 ADD PUSH2 0x6E6 SWAP3 SWAP2 SWAP1 PUSH2 0xE1A JUMP JUMPDEST PUSH1 0x40 DUP1 MLOAD PUSH1 0x1F NOT DUP2 DUP5 SUB ADD DUP2 MSTORE SWAP2 SWAP1 MSTORE PUSH1 0x20 DUP2 ADD DUP1 MLOAD PUSH1 0x1 PUSH1 0x1 PUSH1 0xE0 SHL SUB AND PUSH1 0x1 PUSH1 0x1 PUSH1 0xE0 SHL SUB NOT SWAP1 SWAP4 AND SWAP3 SWAP1 SWAP3 OR SWAP1 SWAP2 MSTORE PUSH2 0x87D JUMP JUMPDEST POP POP POP JUMP JUMPDEST PUSH2 0x767 DUP3 DUP3 PUSH1 0x40 MLOAD PUSH1 0x24 ADD PUSH2 0x738 SWAP3 SWAP2 SWAP1 PUSH2 0xE46 JUMP JUMPDEST PUSH1 0x40 DUP1 MLOAD PUSH1 0x1F NOT DUP2 DUP5 SUB ADD DUP2 MSTORE SWAP2 SWAP1 MSTORE PUSH1 0x20 DUP2 ADD DUP1 MLOAD PUSH1 0x1 PUSH1 0x1 PUSH1 0xE0 SHL SUB AND PUSH4 0x2D839CB3 PUSH1 0xE2 SHL OR SWAP1 MSTORE PUSH2 0x90C JUMP JUMPDEST POP POP JUMP JUMPDEST PUSH2 0x7AE DUP2 PUSH1 0x40 MLOAD PUSH1 0x24 ADD PUSH2 0x77F SWAP2 SWAP1 PUSH2 0xED1 JUMP JUMPDEST PUSH1 0x40 DUP1 MLOAD PUSH1 0x1F NOT DUP2 DUP5 SUB ADD DUP2 MSTORE SWAP2 SWAP1 MSTORE PUSH1 0x20 DUP2 ADD DUP1 MLOAD PUSH1 0x1 PUSH1 0x1 PUSH1 0xE0 SHL SUB AND PUSH4 0xF82C50F1 PUSH1 0xE0 SHL OR SWAP1 MSTORE PUSH2 0x90C JUMP JUMPDEST POP JUMP JUMPDEST DUP1 ISZERO DUP1 PUSH2 0x839 JUMPI POP PUSH1 0x40 MLOAD PUSH4 0x6EB1769F PUSH1 0xE1 SHL DUP2 MSTORE PUSH1 0x1 PUSH1 0x1 PUSH1 0xA0 SHL SUB DUP5 AND SWAP1 PUSH4 0xDD62ED3E SWAP1 PUSH2 0x7E7 SWAP1 ADDRESS SWAP1 DUP7 SWAP1 PUSH1 0x4 ADD PUSH2 0xD23 JUMP JUMPDEST PUSH1 0x20 PUSH1 0x40 MLOAD DUP1 DUP4 SUB DUP2 DUP7 DUP1 EXTCODESIZE ISZERO DUP1 ISZERO PUSH2 0x7FF JUMPI PUSH1 0x0 DUP1 REVERT JUMPDEST POP GAS STATICCALL ISZERO DUP1 ISZERO PUSH2 0x813 JUMPI RETURNDATASIZE PUSH1 0x0 DUP1 RETURNDATACOPY RETURNDATASIZE PUSH1 0x0 REVERT JUMPDEST POP POP POP POP PUSH1 0x40 MLOAD RETURNDATASIZE PUSH1 0x1F NOT PUSH1 0x1F DUP3 ADD AND DUP3 ADD DUP1 PUSH1 0x40 MSTORE POP DUP2 ADD SWAP1 PUSH2 0x837 SWAP2 SWAP1 PUSH2 0xAFA JUMP JUMPDEST ISZERO JUMPDEST PUSH2 0x85E JUMPI PUSH1 0x40 MLOAD PUSH3 0x461BCD PUSH1 0xE5 SHL DUP2 MSTORE PUSH1 0x4 ADD PUSH2 0x855 SWAP1 PUSH2 0xEC1 JUMP JUMPDEST PUSH1 0x40 MLOAD DUP1 SWAP2 SUB SWAP1 REVERT JUMPDEST PUSH2 0x71D DUP4 PUSH4 0x95EA7B3 PUSH1 0xE0 SHL DUP5 DUP5 PUSH1 0x40 MLOAD PUSH1 0x24 ADD PUSH2 0x6E6 SWAP3 SWAP2 SWAP1 PUSH2 0xE1A JUMP JUMPDEST PUSH1 0x0 PUSH2 0x8D2 DUP3 PUSH1 0x40 MLOAD DUP1 PUSH1 0x40 ADD PUSH1 0x40 MSTORE DUP1 PUSH1 0x20 DUP2 MSTORE PUSH1 0x20 ADD PUSH32 0x5361666545524332303A206C6F772D6C6576656C2063616C6C206661696C6564 DUP2 MSTORE POP DUP6 PUSH1 0x1 PUSH1 0x1 PUSH1 0xA0 SHL SUB AND PUSH2 0x92D SWAP1 SWAP3 SWAP2 SWAP1 PUSH4 0xFFFFFFFF AND JUMP JUMPDEST DUP1 MLOAD SWAP1 SWAP2 POP ISZERO PUSH2 0x71D JUMPI DUP1 DUP1 PUSH1 0x20 ADD SWAP1 MLOAD DUP2 ADD SWAP1 PUSH2 0x8F0 SWAP2 SWAP1 PUSH2 0xADC JUMP JUMPDEST PUSH2 0x71D JUMPI PUSH1 0x40 MLOAD PUSH3 0x461BCD PUSH1 0xE5 SHL DUP2 MSTORE PUSH1 0x4 ADD PUSH2 0x855 SWAP1 PUSH2 0xEB1 JUMP JUMPDEST DUP1 MLOAD PUSH11 0x636F6E736F6C652E6C6F67 PUSH1 0x20 DUP4 ADD PUSH1 0x0 DUP1 DUP5 DUP4 DUP6 GAS STATICCALL POP POP POP POP POP JUMP JUMPDEST PUSH1 0x60 PUSH2 0x93C DUP5 DUP5 PUSH1 0x0 DUP6 PUSH2 0x946 JUMP JUMPDEST SWAP1 POP JUMPDEST SWAP4 SWAP3 POP POP POP JUMP JUMPDEST PUSH1 0x60 DUP3 SELFBALANCE LT ISZERO PUSH2 0x968 JUMPI PUSH1 0x40 MLOAD PUSH3 0x461BCD PUSH1 0xE5 SHL DUP2 MSTORE PUSH1 0x4 ADD PUSH2 0x855 SWAP1 PUSH2 0xE66 JUMP JUMPDEST PUSH1 0x0 DUP1 DUP7 PUSH1 0x1 PUSH1 0x1 PUSH1 0xA0 SHL SUB AND DUP6 DUP8 PUSH1 0x40 MLOAD PUSH2 0x984 SWAP2 SWAP1 PUSH2 0xD09 JUMP JUMPDEST PUSH1 0x0 PUSH1 0x40 MLOAD DUP1 DUP4 SUB DUP2 DUP6 DUP8 GAS CALL SWAP3 POP POP POP RETURNDATASIZE DUP1 PUSH1 0x0 DUP2 EQ PUSH2 0x9C1 JUMPI PUSH1 0x40 MLOAD SWAP2 POP PUSH1 0x1F NOT PUSH1 0x3F RETURNDATASIZE ADD AND DUP3 ADD PUSH1 0x40 MSTORE RETURNDATASIZE DUP3 MSTORE RETURNDATASIZE PUSH1 0x0 PUSH1 0x20 DUP5 ADD RETURNDATACOPY PUSH2 0x9C6 JUMP JUMPDEST PUSH1 0x60 SWAP2 POP JUMPDEST POP SWAP2 POP SWAP2 POP PUSH2 0x9D7 DUP8 DUP4 DUP4 DUP8 PUSH2 0x9E4 JUMP JUMPDEST SWAP3 POP POP POP JUMPDEST SWAP5 SWAP4 POP POP POP POP JUMP JUMPDEST PUSH1 0x60 DUP4 ISZERO PUSH2 0xA20 JUMPI DUP3 MLOAD PUSH2 0xA19 JUMPI PUSH1 0x1 PUSH1 0x1 PUSH1 0xA0 SHL SUB DUP6 AND EXTCODESIZE PUSH2 0xA19 JUMPI PUSH1 0x40 MLOAD PUSH3 0x461BCD PUSH1 0xE5 SHL DUP2 MSTORE PUSH1 0x4 ADD PUSH2 0x855 SWAP1 PUSH2 0xE76 JUMP JUMPDEST POP DUP2 PUSH2 0x9DC JUMP JUMPDEST PUSH2 0x9DC DUP4 DUP4 DUP2 MLOAD ISZERO PUSH2 0xA35 JUMPI DUP2 MLOAD DUP1 DUP4 PUSH1 0x20 ADD REVERT JUMPDEST DUP1 PUSH1 0x40 MLOAD PUSH3 0x461BCD PUSH1 0xE5 SHL DUP2 MSTORE PUSH1 0x4 ADD PUSH2 0x855 SWAP2 SWAP1 PUSH2 0xE35 JUMP JUMPDEST DUP1 CALLDATALOAD PUSH2 0x5F3 DUP2 PUSH2 0xFB2 JUMP JUMPDEST DUP1 MLOAD PUSH2 0x5F3 DUP2 PUSH2 0xFC6 JUMP JUMPDEST DUP1 CALLDATALOAD PUSH2 0x5F3 DUP2 PUSH2 0xFCE JUMP JUMPDEST DUP1 MLOAD PUSH2 0x5F3 DUP2 PUSH2 0xFCE JUMP JUMPDEST PUSH1 0x0 DUP1 PUSH1 0x0 DUP1 PUSH1 0x80 DUP6 DUP8 SUB SLT ISZERO PUSH2 0xA91 JUMPI PUSH1 0x0 DUP1 REVERT JUMPDEST PUSH1 0x0 PUSH2 0xA9D DUP8 DUP8 PUSH2 0xA4F JUMP JUMPDEST SWAP5 POP POP PUSH1 0x20 PUSH2 0xAAE DUP8 DUP3 DUP9 ADD PUSH2 0xA4F JUMP JUMPDEST SWAP4 POP POP PUSH1 0x40 PUSH2 0xABF DUP8 DUP3 DUP9 ADD PUSH2 0xA65 JUMP JUMPDEST SWAP3 POP POP PUSH1 0x60 PUSH2 0xAD0 DUP8 DUP3 DUP9 ADD PUSH2 0xA4F JUMP JUMPDEST SWAP2 POP POP SWAP3 SWAP6 SWAP2 SWAP5 POP SWAP3 POP JUMP JUMPDEST PUSH1 0x0 PUSH1 0x20 DUP3 DUP5 SUB SLT ISZERO PUSH2 0xAEE JUMPI PUSH1 0x0 DUP1 REVERT JUMPDEST PUSH1 0x0 PUSH2 0x9DC DUP5 DUP5 PUSH2 0xA5A JUMP JUMPDEST PUSH1 0x0 PUSH1 0x20 DUP3 DUP5 SUB SLT ISZERO PUSH2 0xB0C JUMPI PUSH1 0x0 DUP1 REVERT JUMPDEST PUSH1 0x0 PUSH2 0x9DC DUP5 DUP5 PUSH2 0xA70 JUMP JUMPDEST PUSH1 0x0 DUP1 PUSH1 0x40 DUP4 DUP6 SUB SLT ISZERO PUSH2 0xB2B JUMPI PUSH1 0x0 DUP1 REVERT JUMPDEST PUSH1 0x0 PUSH2 0xB37 DUP6 DUP6 PUSH2 0xA70 JUMP JUMPDEST SWAP3 POP POP PUSH1 0x20 PUSH2 0xB48 DUP6 DUP3 DUP7 ADD PUSH2 0xA70 JUMP JUMPDEST SWAP2 POP POP SWAP3 POP SWAP3 SWAP1 POP JUMP JUMPDEST PUSH1 0x0 PUSH2 0xB5E DUP4 DUP4 PUSH2 0xB66 JUMP JUMPDEST POP POP PUSH1 0x20 ADD SWAP1 JUMP JUMPDEST PUSH2 0xB6F DUP2 PUSH2 0xF41 JUMP JUMPDEST DUP3 MSTORE POP POP JUMP JUMPDEST PUSH1 0x0 PUSH2 0xB7F DUP3 MLOAD SWAP1 JUMP JUMPDEST DUP1 DUP5 MSTORE PUSH1 0x20 SWAP4 DUP5 ADD SWAP4 DUP4 ADD DUP1 PUSH1 0x0 JUMPDEST DUP4 DUP2 LT ISZERO PUSH2 0xBB3 JUMPI DUP2 MLOAD PUSH2 0xBA2 DUP9 DUP3 PUSH2 0xB52 JUMP JUMPDEST SWAP8 POP PUSH1 0x20 DUP4 ADD SWAP3 POP POP PUSH1 0x1 ADD PUSH2 0xB8E JUMP JUMPDEST POP SWAP5 SWAP6 SWAP5 POP POP POP POP POP JUMP JUMPDEST DUP1 ISZERO ISZERO PUSH2 0xB6F JUMP JUMPDEST PUSH1 0x0 PUSH2 0xBD0 DUP3 MLOAD SWAP1 JUMP JUMPDEST PUSH2 0xBDE DUP2 DUP6 PUSH1 0x20 DUP7 ADD PUSH2 0xF5A JUMP JUMPDEST SWAP3 SWAP1 SWAP3 ADD SWAP3 SWAP2 POP POP JUMP JUMPDEST PUSH2 0xB6F DUP2 PUSH2 0xF52 JUMP JUMPDEST PUSH1 0x0 PUSH2 0xBFB DUP3 MLOAD SWAP1 JUMP JUMPDEST DUP1 DUP5 MSTORE PUSH1 0x20 DUP5 ADD SWAP4 POP PUSH2 0xC12 DUP2 DUP6 PUSH1 0x20 DUP7 ADD PUSH2 0xF5A JUMP JUMPDEST PUSH1 0x1F ADD PUSH1 0x1F NOT AND SWAP3 SWAP1 SWAP3 ADD SWAP3 SWAP2 POP POP JUMP JUMPDEST PUSH1 0x26 DUP2 MSTORE PUSH1 0x0 PUSH1 0x20 DUP3 ADD PUSH32 0x416464726573733A20696E73756666696369656E742062616C616E636520666F DUP2 MSTORE PUSH6 0x1C8818D85B1B PUSH1 0xD2 SHL PUSH1 0x20 DUP3 ADD MSTORE SWAP2 POP JUMPDEST POP PUSH1 0x40 ADD SWAP1 JUMP JUMPDEST PUSH1 0x2A DUP2 MSTORE PUSH1 0x0 PUSH1 0x20 DUP3 ADD PUSH32 0x5361666545524332303A204552433230206F7065726174696F6E20646964206E DUP2 MSTORE PUSH10 0x1BDD081CDD58D8D95959 PUSH1 0xB2 SHL PUSH1 0x20 DUP3 ADD MSTORE SWAP2 POP PUSH2 0xC62 JUMP JUMPDEST PUSH1 0x36 DUP2 MSTORE PUSH1 0x0 PUSH1 0x20 DUP3 ADD PUSH32 0x5361666545524332303A20617070726F76652066726F6D206E6F6E2D7A65726F DUP2 MSTORE PUSH22 0x20746F206E6F6E2D7A65726F20616C6C6F77616E6365 PUSH1 0x50 SHL PUSH1 0x20 DUP3 ADD MSTORE SWAP2 POP PUSH2 0xC62 JUMP JUMPDEST DUP1 PUSH2 0xB6F JUMP JUMPDEST PUSH1 0x0 PUSH2 0x93F DUP3 DUP5 PUSH2 0xBC6 JUMP JUMPDEST PUSH1 0x20 DUP2 ADD PUSH2 0x5F3 DUP3 DUP5 PUSH2 0xB66 JUMP JUMPDEST PUSH1 0x40 DUP2 ADD PUSH2 0xD31 DUP3 DUP6 PUSH2 0xB66 JUMP JUMPDEST PUSH2 0x93F PUSH1 0x20 DUP4 ADD DUP5 PUSH2 0xB66 JUMP JUMPDEST PUSH1 0x60 DUP2 ADD PUSH2 0xD4C DUP3 DUP7 PUSH2 0xB66 JUMP JUMPDEST PUSH2 0xD59 PUSH1 0x20 DUP4 ADD DUP6 PUSH2 0xB66 JUMP JUMPDEST PUSH2 0x9DC PUSH1 0x40 DUP4 ADD DUP5 PUSH2 0xD03 JUMP JUMPDEST PUSH2 0x100 DUP2 ADD PUSH2 0xD75 DUP3 DUP12 PUSH2 0xB66 JUMP JUMPDEST PUSH2 0xD82 PUSH1 0x20 DUP4 ADD DUP11 PUSH2 0xB66 JUMP JUMPDEST PUSH2 0xD8F PUSH1 0x40 DUP4 ADD DUP10 PUSH2 0xD03 JUMP JUMPDEST PUSH2 0xD9C PUSH1 0x60 DUP4 ADD DUP9 PUSH2 0xBE8 JUMP JUMPDEST DUP2 DUP2 SUB PUSH1 0x80 DUP4 ADD MSTORE PUSH2 0xDAE DUP2 DUP8 PUSH2 0xB75 JUMP JUMPDEST SWAP1 POP PUSH2 0xDBD PUSH1 0xA0 DUP4 ADD DUP7 PUSH2 0xD03 JUMP JUMPDEST PUSH2 0xDCA PUSH1 0xC0 DUP4 ADD DUP6 PUSH2 0xBBE JUMP JUMPDEST PUSH2 0xDD7 PUSH1 0xE0 DUP4 ADD DUP5 PUSH2 0xD03 JUMP JUMPDEST SWAP10 SWAP9 POP POP POP POP POP POP POP POP POP JUMP JUMPDEST PUSH2 0x100 DUP2 ADD PUSH2 0xDF3 DUP3 DUP12 PUSH2 0xB66 JUMP JUMPDEST PUSH2 0xE00 PUSH1 0x20 DUP4 ADD DUP11 PUSH2 0xB66 JUMP JUMPDEST PUSH2 0xE0D PUSH1 0x40 DUP4 ADD DUP10 PUSH2 0xD03 JUMP JUMPDEST PUSH2 0xD9C PUSH1 0x60 DUP4 ADD DUP9 PUSH2 0xD03 JUMP JUMPDEST PUSH1 0x40 DUP2 ADD PUSH2 0xE28 DUP3 DUP6 PUSH2 0xB66 JUMP JUMPDEST PUSH2 0x93F PUSH1 0x20 DUP4 ADD DUP5 PUSH2 0xD03 JUMP JUMPDEST PUSH1 0x20 DUP1 DUP3 MSTORE DUP2 ADD PUSH2 0x5F0 DUP2 DUP5 PUSH2 0xBF1 JUMP JUMPDEST PUSH1 0x40 DUP1 DUP3 MSTORE DUP2 ADD PUSH2 0xE57 DUP2 DUP6 PUSH2 0xBF1 JUMP JUMPDEST SWAP1 POP PUSH2 0x93F PUSH1 0x20 DUP4 ADD DUP5 PUSH2 0xD03 JUMP JUMPDEST PUSH1 0x20 DUP1 DUP3 MSTORE DUP2 ADD PUSH2 0x5F3 DUP2 PUSH2 0xC23 JUMP JUMPDEST PUSH1 0x20 DUP1 DUP3 MSTORE DUP2 ADD PUSH2 0x5F3 DUP2 PUSH1 0x1D DUP2 MSTORE PUSH32 0x416464726573733A2063616C6C20746F206E6F6E2D636F6E7472616374000000 PUSH1 0x20 DUP3 ADD MSTORE PUSH1 0x40 ADD SWAP1 JUMP JUMPDEST PUSH1 0x20 DUP1 DUP3 MSTORE DUP2 ADD PUSH2 0x5F3 DUP2 PUSH2 0xC69 JUMP JUMPDEST PUSH1 0x20 DUP1 DUP3 MSTORE DUP2 ADD PUSH2 0x5F3 DUP2 PUSH2 0xCB0 JUMP JUMPDEST PUSH1 0x20 DUP2 ADD PUSH2 0x5F3 DUP3 DUP5 PUSH2 0xD03 JUMP JUMPDEST PUSH1 0x0 DUP3 NOT DUP3 GT ISZERO PUSH2 0xEF2 JUMPI PUSH2 0xEF2 PUSH2 0xF86 JUMP JUMPDEST POP ADD SWAP1 JUMP JUMPDEST PUSH1 0x0 DUP3 PUSH2 0xF06 JUMPI PUSH2 0xF06 PUSH2 0xF9C JUMP JUMPDEST POP DIV SWAP1 JUMP JUMPDEST PUSH1 0x0 DUP2 PUSH1 0x0 NOT DIV DUP4 GT DUP3 ISZERO ISZERO AND ISZERO PUSH2 0xF25 JUMPI PUSH2 0xF25 PUSH2 0xF86 JUMP JUMPDEST POP MUL SWAP1 JUMP JUMPDEST PUSH1 0x0 DUP3 DUP3 LT ISZERO PUSH2 0xF3C JUMPI PUSH2 0xF3C PUSH2 0xF86 JUMP JUMPDEST POP SUB SWAP1 JUMP JUMPDEST PUSH1 0x0 PUSH1 0x1 PUSH1 0x1 PUSH1 0xA0 SHL SUB DUP3 AND PUSH2 0x5F3 JUMP JUMPDEST PUSH1 0x0 DUP2 PUSH2 0x5F3 JUMP JUMPDEST PUSH1 0x0 JUMPDEST DUP4 DUP2 LT ISZERO PUSH2 0xF75 JUMPI DUP2 DUP2 ADD MLOAD DUP4 DUP3 ADD MSTORE PUSH1 0x20 ADD PUSH2 0xF5D JUMP JUMPDEST DUP4 DUP2 GT ISZERO PUSH2 0x6C1 JUMPI POP POP PUSH1 0x0 SWAP2 ADD MSTORE JUMP JUMPDEST PUSH4 0x4E487B71 PUSH1 0xE0 SHL PUSH1 0x0 MSTORE PUSH1 0x11 PUSH1 0x4 MSTORE PUSH1 0x24 PUSH1 0x0 REVERT JUMPDEST PUSH4 0x4E487B71 PUSH1 0xE0 SHL PUSH1 0x0 MSTORE PUSH1 0x12 PUSH1 0x4 MSTORE PUSH1 0x24 PUSH1 0x0 REVERT JUMPDEST PUSH2 0xFBB DUP2 PUSH2 0xF41 JUMP JUMPDEST DUP2 EQ PUSH2 0x7AE JUMPI PUSH1 0x0 DUP1 REVERT JUMPDEST DUP1 ISZERO ISZERO PUSH2 0xFBB JUMP JUMPDEST DUP1 PUSH2 0xFBB JUMP INVALID LOG2 PUSH5 0x6970667358 0x22 SLT KECCAK256 SGT SWAP14 0xED 0xC8 BALANCE 0xAB 0x27 0xD4 SDIV PUSH12 0x84F3B916F524EE62F04E236A 0x2F 0x25 0xD NOT 0xD 0xBB 0xB9 LOG2 0x4B PUSH30 0x64736F6C6343000804003300000000000000000000000000000000000000 "},"methodIdentifiers":{"useDodoSwapV1()":"25765d92","useDodoSwapV2(address,address,uint256,address)":"6a7b0768"}},"storageLayout":{"storage":[],"types":null}}}}