{"contracts/DODOFlashloan.sol":{"DODOFlashloan":{"abi":[{"anonymous":false,"inputs":[{"indexed":false,"internalType":"address","name":"token","type":"address"},{"indexed":false,"internalType":"uint256","name":"amount","type":"uint256"}],"name":"checkBorrowedAmount","type":"event"},{"anonymous":false,"inputs":[{"indexed":false,"internalType":"address","name":"token","type":"address"},{"indexed":false,"internalType":"uint256","name":"amount","type":"uint256"}],"name":"payBackLoan","type":"event"},{"inputs":[{"internalType":"address","name":"sender","type":"address"},{"internalType":"uint256","name":"baseAmount","type":"uint256"},{"internalType":"uint256","name":"quoteAmount","type":"uint256"},{"internalType":"bytes","name":"data","type":"bytes"}],"name":"DPPFlashLoanCall","outputs":[],"stateMutability":"nonpayable","type":"function"},{"inputs":[{"internalType":"address","name":"sender","type":"address"},{"internalType":"uint256","name":"baseAmount","type":"uint256"},{"internalType":"uint256","name":"quoteAmount","type":"uint256"},{"internalType":"bytes","name":"data","type":"bytes"}],"name":"DSPFlashLoanCall","outputs":[],"stateMutability":"nonpayable","type":"function"},{"inputs":[{"internalType":"address","name":"sender","type":"address"},{"internalType":"uint256","name":"baseAmount","type":"uint256"},{"internalType":"uint256","name":"quoteAmount","type":"uint256"},{"internalType":"bytes","name":"data","type":"bytes"}],"name":"DVMFlashLoanCall","outputs":[],"stateMutability":"nonpayable","type":"function"},{"inputs":[{"internalType":"address","name":"flashLoanPool","type":"address"},{"internalType":"uint256","name":"loanAmount","type":"uint256"},{"internalType":"address","name":"loanToken","type":"address"}],"name":"dodoFlashLoan","outputs":[],"stateMutability":"nonpayable","type":"function"}],"evm":{"bytecode":{"linkReferences":{},"object":"608060405234801561001057600080fd5b506109d4806100206000396000f3fe608060405234801561001057600080fd5b506004361061004c5760003560e01c80637ed1f1dd14610051578063d5b9979714610051578063eb2021c314610051578063ed97c93814610066575b600080fd5b61006461005f366004610685565b610079565b005b610064610074366004610642565b61008d565b610086858585858561021a565b5050505050565b60008382846040516020016100a49392919061079d565b60405160208183030381529060405290506000846001600160a01b0316634a248d2a6040518163ffffffff1660e01b815260040160206040518083038186803b1580156100f057600080fd5b505afa158015610104573d6000803e3d6000fd5b505050506040513d601f19601f8201168201806040525081019061012891906105cf565b9050826001600160a01b0316816001600160a01b031614156101ae57604051633429253960e21b81526001600160a01b0386169063d0a494e490610177908790600090309088906004016108ee565b600060405180830381600087803b15801561019157600080fd5b505af11580156101a5573d6000803e3d6000fd5b50505050610086565b604051633429253960e21b81526001600160a01b0386169063d0a494e4906101e1906000908890309088906004016107e7565b600060405180830381600087803b1580156101fb57600080fd5b505af115801561020f573d6000803e3d6000fd5b505050505050505050565b6000808061022a848601866105f5565b919450925090506001600160a01b038816301480156102515750336001600160a01b038416145b6102765760405162461bcd60e51b815260040161026d906108bd565b60405180910390fd5b6040516370a0823160e01b81526001600160a01b038316906370a08231906102a290309060040161078f565b60206040518083038186803b1580156102ba57600080fd5b505afa1580156102ce573d6000803e3d6000fd5b505050506040513d601f19601f820116820180604052508101906102f29190610721565b81146103105760405162461bcd60e51b815260040161026d9061085c565b7f3a227357a857ce0c0e91741d8eccc8993feba4b2722acb7260125b30ce21413682826040516103419291906107c5565b60405180910390a1670de0b6b3a76400008111156103975760408051808201909152600c81526b165bdd48189bdc9c9bddd95960a21b602082015261039790610392670de0b6b3a764000084610909565b610499565b60405163a9059cbb60e01b81526001600160a01b0383169063a9059cbb906103c590869085906004016107c5565b602060405180830381600087803b1580156103df57600080fd5b505af11580156103f3573d6000803e3d6000fd5b505050506040513d601f19601f820116820180604052508101906104179190610703565b507fdb1cb55863e8c14b76121e1c7a1dd384bbf404face056dcd7f4ed8d9daa716da82826040516104499291906107c5565b60405180910390a161048f6040518060400160405280601f81526020017f596f75207375636365737366756c6c792072657475726e6564206c6f616e21008152506104e2565b5050505050505050565b6104de82826040516024016104af92919061083c565b60408051601f198184030181529190526020810180516001600160e01b0316632d839cb360e21b179052610528565b5050565b610525816040516024016104f6919061082b565b60408051601f198184030181529190526020810180516001600160e01b031663104c13eb60e21b179052610528565b50565b80516a636f6e736f6c652e6c6f67602083016000808483855afa5050505050565b80356105548161097c565b92915050565b80516105548161097c565b805161055481610990565b60008083601f84011261058257600080fd5b50813567ffffffffffffffff81111561059a57600080fd5b6020830191508360018202830111156105b257600080fd5b9250929050565b803561055481610998565b805161055481610998565b6000602082840312156105e157600080fd5b60006105ed848461055a565b949350505050565b60008060006060848603121561060a57600080fd5b60006106168686610549565b935050602061062786828701610549565b9250506040610638868287016105b9565b9150509250925092565b60008060006060848603121561065757600080fd5b60006106638686610549565b9350506020610674868287016105b9565b925050604061063886828701610549565b60008060008060006080868803121561069d57600080fd5b60006106a98888610549565b95505060206106ba888289016105b9565b94505060406106cb888289016105b9565b935050606086013567ffffffffffffffff8111156106e857600080fd5b6106f488828901610570565b92509250509295509295909350565b60006020828403121561071557600080fd5b60006105ed8484610565565b60006020828403121561073357600080fd5b60006105ed84846105c4565b6107488161091d565b82525050565b6000610758825190565b80845260208401935061076f818560208601610936565b601f01601f19169290920192915050565b6107488161092e565b80610748565b60208101610554828461073f565b606081016107ab828661073f565b6107b8602083018561073f565b6105ed6040830184610789565b604081016107d3828561073f565b6107e06020830184610789565b9392505050565b608081016107f58287610780565b6108026020830186610789565b61080f604083018561073f565b8181036060830152610821818461074e565b9695505050505050565b602080825281016107e0818461074e565b6040808252810161084d818561074e565b90506107e06020830184610789565b6020808252810161055481603a81527f546865206c6f616e416d6f756e7420616e64207468652063757272656e74206260208201527f616c616e63652073686f756c64206265207468652073616d6521000000000000604082015260600190565b6020808252810161055481601381527212105391131157d1931054d217d39153925151606a1b602082015260400190565b608081016108fc8287610789565b6108026020830186610780565b60008261091857610918610966565b500490565b60006001600160a01b038216610554565b600081610554565b60005b83811015610951578181015183820152602001610939565b83811115610960576000848401525b50505050565b634e487b7160e01b600052601260045260246000fd5b6109858161091d565b811461052557600080fd5b801515610985565b8061098556fea2646970667358221220085b6b1f8144694dcda00db166970cd0b8b87170059a4c9c31c240559948f02a64736f6c63430008040033","opcodes":"PUSH1 0x80 PUSH1 0x40 MSTORE CALLVALUE DUP1 ISZERO PUSH2 0x10 JUMPI PUSH1 0x0 DUP1 REVERT JUMPDEST POP PUSH2 0x9D4 DUP1 PUSH2 0x20 PUSH1 0x0 CODECOPY PUSH1 0x0 RETURN INVALID PUSH1 0x80 PUSH1 0x40 MSTORE CALLVALUE DUP1 ISZERO PUSH2 0x10 JUMPI PUSH1 0x0 DUP1 REVERT JUMPDEST POP PUSH1 0x4 CALLDATASIZE LT PUSH2 0x4C JUMPI PUSH1 0x0 CALLDATALOAD PUSH1 0xE0 SHR DUP1 PUSH4 0x7ED1F1DD EQ PUSH2 0x51 JUMPI DUP1 PUSH4 0xD5B99797 EQ PUSH2 0x51 JUMPI DUP1 PUSH4 0xEB2021C3 EQ PUSH2 0x51 JUMPI DUP1 PUSH4 0xED97C938 EQ PUSH2 0x66 JUMPI JUMPDEST PUSH1 0x0 DUP1 REVERT JUMPDEST PUSH2 0x64 PUSH2 0x5F CALLDATASIZE PUSH1 0x4 PUSH2 0x685 JUMP JUMPDEST PUSH2 0x79 JUMP JUMPDEST STOP JUMPDEST PUSH2 0x64 PUSH2 0x74 CALLDATASIZE PUSH1 0x4 PUSH2 0x642 JUMP JUMPDEST PUSH2 0x8D JUMP JUMPDEST PUSH2 0x86 DUP6 DUP6 DUP6 DUP6 DUP6 PUSH2 0x21A JUMP JUMPDEST POP POP POP POP POP JUMP JUMPDEST PUSH1 0x0 DUP4 DUP3 DUP5 PUSH1 0x40 MLOAD PUSH1 0x20 ADD PUSH2 0xA4 SWAP4 SWAP3 SWAP2 SWAP1 PUSH2 0x79D JUMP JUMPDEST PUSH1 0x40 MLOAD PUSH1 0x20 DUP2 DUP4 SUB SUB DUP2 MSTORE SWAP1 PUSH1 0x40 MSTORE SWAP1 POP PUSH1 0x0 DUP5 PUSH1 0x1 PUSH1 0x1 PUSH1 0xA0 SHL SUB AND PUSH4 0x4A248D2A PUSH1 0x40 MLOAD DUP2 PUSH4 0xFFFFFFFF AND PUSH1 0xE0 SHL DUP2 MSTORE PUSH1 0x4 ADD PUSH1 0x20 PUSH1 0x40 MLOAD DUP1 DUP4 SUB DUP2 DUP7 DUP1 EXTCODESIZE ISZERO DUP1 ISZERO PUSH2 0xF0 JUMPI PUSH1 0x0 DUP1 REVERT JUMPDEST POP GAS STATICCALL ISZERO DUP1 ISZERO PUSH2 0x104 JUMPI RETURNDATASIZE PUSH1 0x0 DUP1 RETURNDATACOPY RETURNDATASIZE PUSH1 0x0 REVERT JUMPDEST POP POP POP POP PUSH1 0x40 MLOAD RETURNDATASIZE PUSH1 0x1F NOT PUSH1 0x1F DUP3 ADD AND DUP3 ADD DUP1 PUSH1 0x40 MSTORE POP DUP2 ADD SWAP1 PUSH2 0x128 SWAP2 SWAP1 PUSH2 0x5CF JUMP JUMPDEST SWAP1 POP DUP3 PUSH1 0x1 PUSH1 0x1 PUSH1 0xA0 SHL SUB AND DUP2 PUSH1 0x1 PUSH1 0x1 PUSH1 0xA0 SHL SUB AND EQ ISZERO PUSH2 0x1AE JUMPI PUSH1 0x40 MLOAD PUSH4 0x34292539 PUSH1 0xE2 SHL DUP2 MSTORE PUSH1 0x1 PUSH1 0x1 PUSH1 0xA0 SHL SUB DUP7 AND SWAP1 PUSH4 0xD0A494E4 SWAP1 PUSH2 0x177 SWAP1 DUP8 SWAP1 PUSH1 0x0 SWAP1 ADDRESS SWAP1 DUP9 SWAP1 PUSH1 0x4 ADD PUSH2 0x8EE JUMP JUMPDEST PUSH1 0x0 PUSH1 0x40 MLOAD DUP1 DUP4 SUB DUP2 PUSH1 0x0 DUP8 DUP1 EXTCODESIZE ISZERO DUP1 ISZERO PUSH2 0x191 JUMPI PUSH1 0x0 DUP1 REVERT JUMPDEST POP GAS CALL ISZERO DUP1 ISZERO PUSH2 0x1A5 JUMPI RETURNDATASIZE PUSH1 0x0 DUP1 RETURNDATACOPY RETURNDATASIZE PUSH1 0x0 REVERT JUMPDEST POP POP POP POP PUSH2 0x86 JUMP JUMPDEST PUSH1 0x40 MLOAD PUSH4 0x34292539 PUSH1 0xE2 SHL DUP2 MSTORE PUSH1 0x1 PUSH1 0x1 PUSH1 0xA0 SHL SUB DUP7 AND SWAP1 PUSH4 0xD0A494E4 SWAP1 PUSH2 0x1E1 SWAP1 PUSH1 0x0 SWAP1 DUP9 SWAP1 ADDRESS SWAP1 DUP9 SWAP1 PUSH1 0x4 ADD PUSH2 0x7E7 JUMP JUMPDEST PUSH1 0x0 PUSH1 0x40 MLOAD DUP1 DUP4 SUB DUP2 PUSH1 0x0 DUP8 DUP1 EXTCODESIZE ISZERO DUP1 ISZERO PUSH2 0x1FB JUMPI PUSH1 0x0 DUP1 REVERT JUMPDEST POP GAS CALL ISZERO DUP1 ISZERO PUSH2 0x20F JUMPI RETURNDATASIZE PUSH1 0x0 DUP1 RETURNDATACOPY RETURNDATASIZE PUSH1 0x0 REVERT JUMPDEST POP POP POP POP POP POP POP POP POP JUMP JUMPDEST PUSH1 0x0 DUP1 DUP1 PUSH2 0x22A DUP5 DUP7 ADD DUP7 PUSH2 0x5F5 JUMP JUMPDEST SWAP2 SWAP5 POP SWAP3 POP SWAP1 POP PUSH1 0x1 PUSH1 0x1 PUSH1 0xA0 SHL SUB DUP9 AND ADDRESS EQ DUP1 ISZERO PUSH2 0x251 JUMPI POP CALLER PUSH1 0x1 PUSH1 0x1 PUSH1 0xA0 SHL SUB DUP5 AND EQ JUMPDEST PUSH2 0x276 JUMPI PUSH1 0x40 MLOAD PUSH3 0x461BCD PUSH1 0xE5 SHL DUP2 MSTORE PUSH1 0x4 ADD PUSH2 0x26D SWAP1 PUSH2 0x8BD JUMP JUMPDEST PUSH1 0x40 MLOAD DUP1 SWAP2 SUB SWAP1 REVERT JUMPDEST PUSH1 0x40 MLOAD PUSH4 0x70A08231 PUSH1 0xE0 SHL DUP2 MSTORE PUSH1 0x1 PUSH1 0x1 PUSH1 0xA0 SHL SUB DUP4 AND SWAP1 PUSH4 0x70A08231 SWAP1 PUSH2 0x2A2 SWAP1 ADDRESS SWAP1 PUSH1 0x4 ADD PUSH2 0x78F JUMP JUMPDEST PUSH1 0x20 PUSH1 0x40 MLOAD DUP1 DUP4 SUB DUP2 DUP7 DUP1 EXTCODESIZE ISZERO DUP1 ISZERO PUSH2 0x2BA JUMPI PUSH1 0x0 DUP1 REVERT JUMPDEST POP GAS STATICCALL ISZERO DUP1 ISZERO PUSH2 0x2CE JUMPI RETURNDATASIZE PUSH1 0x0 DUP1 RETURNDATACOPY RETURNDATASIZE PUSH1 0x0 REVERT JUMPDEST POP POP POP POP PUSH1 0x40 MLOAD RETURNDATASIZE PUSH1 0x1F NOT PUSH1 0x1F DUP3 ADD AND DUP3 ADD DUP1 PUSH1 0x40 MSTORE POP DUP2 ADD SWAP1 PUSH2 0x2F2 SWAP2 SWAP1 PUSH2 0x721 JUMP JUMPDEST DUP2 EQ PUSH2 0x310 JUMPI PUSH1 0x40 MLOAD PUSH3 0x461BCD PUSH1 0xE5 SHL DUP2 MSTORE PUSH1 0x4 ADD PUSH2 0x26D SWAP1 PUSH2 0x85C JUMP JUMPDEST PUSH32 0x3A227357A857CE0C0E91741D8ECCC8993FEBA4B2722ACB7260125B30CE214136 DUP3 DUP3 PUSH1 0x40 MLOAD PUSH2 0x341 SWAP3 SWAP2 SWAP1 PUSH2 0x7C5 JUMP JUMPDEST PUSH1 0x40 MLOAD DUP1 SWAP2 SUB SWAP1 LOG1 PUSH8 0xDE0B6B3A7640000 DUP2 GT ISZERO PUSH2 0x397 JUMPI PUSH1 0x40 DUP1 MLOAD DUP1 DUP3 ADD SWAP1 SWAP2 MSTORE PUSH1 0xC DUP2 MSTORE PUSH12 0x165BDD48189BDC9C9BDDD959 PUSH1 0xA2 SHL PUSH1 0x20 DUP3 ADD MSTORE PUSH2 0x397 SWAP1 PUSH2 0x392 PUSH8 0xDE0B6B3A7640000 DUP5 PUSH2 0x909 JUMP JUMPDEST PUSH2 0x499 JUMP JUMPDEST PUSH1 0x40 MLOAD PUSH4 0xA9059CBB PUSH1 0xE0 SHL DUP2 MSTORE PUSH1 0x1 PUSH1 0x1 PUSH1 0xA0 SHL SUB DUP4 AND SWAP1 PUSH4 0xA9059CBB SWAP1 PUSH2 0x3C5 SWAP1 DUP7 SWAP1 DUP6 SWAP1 PUSH1 0x4 ADD PUSH2 0x7C5 JUMP JUMPDEST PUSH1 0x20 PUSH1 0x40 MLOAD DUP1 DUP4 SUB DUP2 PUSH1 0x0 DUP8 DUP1 EXTCODESIZE ISZERO DUP1 ISZERO PUSH2 0x3DF JUMPI PUSH1 0x0 DUP1 REVERT JUMPDEST POP GAS CALL ISZERO DUP1 ISZERO PUSH2 0x3F3 JUMPI RETURNDATASIZE PUSH1 0x0 DUP1 RETURNDATACOPY RETURNDATASIZE PUSH1 0x0 REVERT JUMPDEST POP POP POP POP PUSH1 0x40 MLOAD RETURNDATASIZE PUSH1 0x1F NOT PUSH1 0x1F DUP3 ADD AND DUP3 ADD DUP1 PUSH1 0x40 MSTORE POP DUP2 ADD SWAP1 PUSH2 0x417 SWAP2 SWAP1 PUSH2 0x703 JUMP JUMPDEST POP PUSH32 0xDB1CB55863E8C14B76121E1C7A1DD384BBF404FACE056DCD7F4ED8D9DAA716DA DUP3 DUP3 PUSH1 0x40 MLOAD PUSH2 0x449 SWAP3 SWAP2 SWAP1 PUSH2 0x7C5 JUMP JUMPDEST PUSH1 0x40 MLOAD DUP1 SWAP2 SUB SWAP1 LOG1 PUSH2 0x48F PUSH1 0x40 MLOAD DUP1 PUSH1 0x40 ADD PUSH1 0x40 MSTORE DUP1 PUSH1 0x1F DUP2 MSTORE PUSH1 0x20 ADD PUSH32 0x596F75207375636365737366756C6C792072657475726E6564206C6F616E2100 DUP2 MSTORE POP PUSH2 0x4E2 JUMP JUMPDEST POP POP POP POP POP POP POP POP JUMP JUMPDEST PUSH2 0x4DE DUP3 DUP3 PUSH1 0x40 MLOAD PUSH1 0x24 ADD PUSH2 0x4AF SWAP3 SWAP2 SWAP1 PUSH2 0x83C JUMP JUMPDEST PUSH1 0x40 DUP1 MLOAD PUSH1 0x1F NOT DUP2 DUP5 SUB ADD DUP2 MSTORE SWAP2 SWAP1 MSTORE PUSH1 0x20 DUP2 ADD DUP1 MLOAD PUSH1 0x1 PUSH1 0x1 PUSH1 0xE0 SHL SUB AND PUSH4 0x2D839CB3 PUSH1 0xE2 SHL OR SWAP1 MSTORE PUSH2 0x528 JUMP JUMPDEST POP POP JUMP JUMPDEST PUSH2 0x525 DUP2 PUSH1 0x40 MLOAD PUSH1 0x24 ADD PUSH2 0x4F6 SWAP2 SWAP1 PUSH2 0x82B JUMP JUMPDEST PUSH1 0x40 DUP1 MLOAD PUSH1 0x1F NOT DUP2 DUP5 SUB ADD DUP2 MSTORE SWAP2 SWAP1 MSTORE PUSH1 0x20 DUP2 ADD DUP1 MLOAD PUSH1 0x1 PUSH1 0x1 PUSH1 0xE0 SHL SUB AND PUSH4 0x104C13EB PUSH1 0xE2 SHL OR SWAP1 MSTORE PUSH2 0x528 JUMP JUMPDEST POP JUMP JUMPDEST DUP1 MLOAD PUSH11 0x636F6E736F6C652E6C6F67 PUSH1 0x20 DUP4 ADD PUSH1 0x0 DUP1 DUP5 DUP4 DUP6 GAS STATICCALL POP POP POP POP POP JUMP JUMPDEST DUP1 CALLDATALOAD PUSH2 0x554 DUP2 PUSH2 0x97C JUMP JUMPDEST SWAP3 SWAP2 POP POP JUMP JUMPDEST DUP1 MLOAD PUSH2 0x554 DUP2 PUSH2 0x97C JUMP JUMPDEST DUP1 MLOAD PUSH2 0x554 DUP2 PUSH2 0x990 JUMP JUMPDEST PUSH1 0x0 DUP1 DUP4 PUSH1 0x1F DUP5 ADD SLT PUSH2 0x582 JUMPI PUSH1 0x0 DUP1 REVERT JUMPDEST POP DUP2 CALLDATALOAD PUSH8 0xFFFFFFFFFFFFFFFF DUP2 GT ISZERO PUSH2 0x59A JUMPI PUSH1 0x0 DUP1 REVERT JUMPDEST PUSH1 0x20 DUP4 ADD SWAP2 POP DUP4 PUSH1 0x1 DUP3 MUL DUP4 ADD GT ISZERO PUSH2 0x5B2 JUMPI PUSH1 0x0 DUP1 REVERT JUMPDEST SWAP3 POP SWAP3 SWAP1 POP JUMP JUMPDEST DUP1 CALLDATALOAD PUSH2 0x554 DUP2 PUSH2 0x998 JUMP JUMPDEST DUP1 MLOAD PUSH2 0x554 DUP2 PUSH2 0x998 JUMP JUMPDEST PUSH1 0x0 PUSH1 0x20 DUP3 DUP5 SUB SLT ISZERO PUSH2 0x5E1 JUMPI PUSH1 0x0 DUP1 REVERT JUMPDEST PUSH1 0x0 PUSH2 0x5ED DUP5 DUP5 PUSH2 0x55A JUMP JUMPDEST SWAP5 SWAP4 POP POP POP POP JUMP JUMPDEST PUSH1 0x0 DUP1 PUSH1 0x0 PUSH1 0x60 DUP5 DUP7 SUB SLT ISZERO PUSH2 0x60A JUMPI PUSH1 0x0 DUP1 REVERT JUMPDEST PUSH1 0x0 PUSH2 0x616 DUP7 DUP7 PUSH2 0x549 JUMP JUMPDEST SWAP4 POP POP PUSH1 0x20 PUSH2 0x627 DUP7 DUP3 DUP8 ADD PUSH2 0x549 JUMP JUMPDEST SWAP3 POP POP PUSH1 0x40 PUSH2 0x638 DUP7 DUP3 DUP8 ADD PUSH2 0x5B9 JUMP JUMPDEST SWAP2 POP POP SWAP3 POP SWAP3 POP SWAP3 JUMP JUMPDEST PUSH1 0x0 DUP1 PUSH1 0x0 PUSH1 0x60 DUP5 DUP7 SUB SLT ISZERO PUSH2 0x657 JUMPI PUSH1 0x0 DUP1 REVERT JUMPDEST PUSH1 0x0 PUSH2 0x663 DUP7 DUP7 PUSH2 0x549 JUMP JUMPDEST SWAP4 POP POP PUSH1 0x20 PUSH2 0x674 DUP7 DUP3 DUP8 ADD PUSH2 0x5B9 JUMP JUMPDEST SWAP3 POP POP PUSH1 0x40 PUSH2 0x638 DUP7 DUP3 DUP8 ADD PUSH2 0x549 JUMP JUMPDEST PUSH1 0x0 DUP1 PUSH1 0x0 DUP1 PUSH1 0x0 PUSH1 0x80 DUP7 DUP9 SUB SLT ISZERO PUSH2 0x69D JUMPI PUSH1 0x0 DUP1 REVERT JUMPDEST PUSH1 0x0 PUSH2 0x6A9 DUP9 DUP9 PUSH2 0x549 JUMP JUMPDEST SWAP6 POP POP PUSH1 0x20 PUSH2 0x6BA DUP9 DUP3 DUP10 ADD PUSH2 0x5B9 JUMP JUMPDEST SWAP5 POP POP PUSH1 0x40 PUSH2 0x6CB DUP9 DUP3 DUP10 ADD PUSH2 0x5B9 JUMP JUMPDEST SWAP4 POP POP PUSH1 0x60 DUP7 ADD CALLDATALOAD PUSH8 0xFFFFFFFFFFFFFFFF DUP2 GT ISZERO PUSH2 0x6E8 JUMPI PUSH1 0x0 DUP1 REVERT JUMPDEST PUSH2 0x6F4 DUP9 DUP3 DUP10 ADD PUSH2 0x570 JUMP JUMPDEST SWAP3 POP SWAP3 POP POP SWAP3 SWAP6 POP SWAP3 SWAP6 SWAP1 SWAP4 POP JUMP JUMPDEST PUSH1 0x0 PUSH1 0x20 DUP3 DUP5 SUB SLT ISZERO PUSH2 0x715 JUMPI PUSH1 0x0 DUP1 REVERT JUMPDEST PUSH1 0x0 PUSH2 0x5ED DUP5 DUP5 PUSH2 0x565 JUMP JUMPDEST PUSH1 0x0 PUSH1 0x20 DUP3 DUP5 SUB SLT ISZERO PUSH2 0x733 JUMPI PUSH1 0x0 DUP1 REVERT JUMPDEST PUSH1 0x0 PUSH2 0x5ED DUP5 DUP5 PUSH2 0x5C4 JUMP JUMPDEST PUSH2 0x748 DUP2 PUSH2 0x91D JUMP JUMPDEST DUP3 MSTORE POP POP JUMP JUMPDEST PUSH1 0x0 PUSH2 0x758 DUP3 MLOAD SWAP1 JUMP JUMPDEST DUP1 DUP5 MSTORE PUSH1 0x20 DUP5 ADD SWAP4 POP PUSH2 0x76F DUP2 DUP6 PUSH1 0x20 DUP7 ADD PUSH2 0x936 JUMP JUMPDEST PUSH1 0x1F ADD PUSH1 0x1F NOT AND SWAP3 SWAP1 SWAP3 ADD SWAP3 SWAP2 POP POP JUMP JUMPDEST PUSH2 0x748 DUP2 PUSH2 0x92E JUMP JUMPDEST DUP1 PUSH2 0x748 JUMP JUMPDEST PUSH1 0x20 DUP2 ADD PUSH2 0x554 DUP3 DUP5 PUSH2 0x73F JUMP JUMPDEST PUSH1 0x60 DUP2 ADD PUSH2 0x7AB DUP3 DUP7 PUSH2 0x73F JUMP JUMPDEST PUSH2 0x7B8 PUSH1 0x20 DUP4 ADD DUP6 PUSH2 0x73F JUMP JUMPDEST PUSH2 0x5ED PUSH1 0x40 DUP4 ADD DUP5 PUSH2 0x789 JUMP JUMPDEST PUSH1 0x40 DUP2 ADD PUSH2 0x7D3 DUP3 DUP6 PUSH2 0x73F JUMP JUMPDEST PUSH2 0x7E0 PUSH1 0x20 DUP4 ADD DUP5 PUSH2 0x789 JUMP JUMPDEST SWAP4 SWAP3 POP POP POP JUMP JUMPDEST PUSH1 0x80 DUP2 ADD PUSH2 0x7F5 DUP3 DUP8 PUSH2 0x780 JUMP JUMPDEST PUSH2 0x802 PUSH1 0x20 DUP4 ADD DUP7 PUSH2 0x789 JUMP JUMPDEST PUSH2 0x80F PUSH1 0x40 DUP4 ADD DUP6 PUSH2 0x73F JUMP JUMPDEST DUP2 DUP2 SUB PUSH1 0x60 DUP4 ADD MSTORE PUSH2 0x821 DUP2 DUP5 PUSH2 0x74E JUMP JUMPDEST SWAP7 SWAP6 POP POP POP POP POP POP JUMP JUMPDEST PUSH1 0x20 DUP1 DUP3 MSTORE DUP2 ADD PUSH2 0x7E0 DUP2 DUP5 PUSH2 0x74E JUMP JUMPDEST PUSH1 0x40 DUP1 DUP3 MSTORE DUP2 ADD PUSH2 0x84D DUP2 DUP6 PUSH2 0x74E JUMP JUMPDEST SWAP1 POP PUSH2 0x7E0 PUSH1 0x20 DUP4 ADD DUP5 PUSH2 0x789 JUMP JUMPDEST PUSH1 0x20 DUP1 DUP3 MSTORE DUP2 ADD PUSH2 0x554 DUP2 PUSH1 0x3A DUP2 MSTORE PUSH32 0x546865206C6F616E416D6F756E7420616E64207468652063757272656E742062 PUSH1 0x20 DUP3 ADD MSTORE PUSH32 0x616C616E63652073686F756C64206265207468652073616D6521000000000000 PUSH1 0x40 DUP3 ADD MSTORE PUSH1 0x60 ADD SWAP1 JUMP JUMPDEST PUSH1 0x20 DUP1 DUP3 MSTORE DUP2 ADD PUSH2 0x554 DUP2 PUSH1 0x13 DUP2 MSTORE PUSH19 0x12105391131157D1931054D217D39153925151 PUSH1 0x6A SHL PUSH1 0x20 DUP3 ADD MSTORE PUSH1 0x40 ADD SWAP1 JUMP JUMPDEST PUSH1 0x80 DUP2 ADD PUSH2 0x8FC DUP3 DUP8 PUSH2 0x789 JUMP JUMPDEST PUSH2 0x802 PUSH1 0x20 DUP4 ADD DUP7 PUSH2 0x780 JUMP JUMPDEST PUSH1 0x0 DUP3 PUSH2 0x918 JUMPI PUSH2 0x918 PUSH2 0x966 JUMP JUMPDEST POP DIV SWAP1 JUMP JUMPDEST PUSH1 0x0 PUSH1 0x1 PUSH1 0x1 PUSH1 0xA0 SHL SUB DUP3 AND PUSH2 0x554 JUMP JUMPDEST PUSH1 0x0 DUP2 PUSH2 0x554 JUMP JUMPDEST PUSH1 0x0 JUMPDEST DUP4 DUP2 LT ISZERO PUSH2 0x951 JUMPI DUP2 DUP2 ADD MLOAD DUP4 DUP3 ADD MSTORE PUSH1 0x20 ADD PUSH2 0x939 JUMP JUMPDEST DUP4 DUP2 GT ISZERO PUSH2 0x960 JUMPI PUSH1 0x0 DUP5 DUP5 ADD MSTORE JUMPDEST POP POP POP POP JUMP JUMPDEST PUSH4 0x4E487B71 PUSH1 0xE0 SHL PUSH1 0x0 MSTORE PUSH1 0x12 PUSH1 0x4 MSTORE PUSH1 0x24 PUSH1 0x0 REVERT JUMPDEST PUSH2 0x985 DUP2 PUSH2 0x91D JUMP JUMPDEST DUP2 EQ PUSH2 0x525 JUMPI PUSH1 0x0 DUP1 REVERT JUMPDEST DUP1 ISZERO ISZERO PUSH2 0x985 JUMP JUMPDEST DUP1 PUSH2 0x985 JUMP INVALID LOG2 PUSH5 0x6970667358 0x22 SLT KECCAK256 ADDMOD JUMPDEST PUSH12 0x1F8144694DCDA00DB166970C 0xD0 0xB8 0xB8 PUSH18 0x70059A4C9C31C240559948F02A64736F6C63 NUMBER STOP ADDMOD DIV STOP CALLER "},"methodIdentifiers":{"DPPFlashLoanCall(address,uint256,uint256,bytes)":"7ed1f1dd","DSPFlashLoanCall(address,uint256,uint256,bytes)":"d5b99797","DVMFlashLoanCall(address,uint256,uint256,bytes)":"eb2021c3","dodoFlashLoan(address,uint256,address)":"ed97c938"}},"storageLayout":{"storage":[],"types":null}}}}