{
  "_format": "hh-sol-artifact-1",
  "contractName": "DODOProxyIntegrate",
  "sourceName": "contracts/DODOProxyIntegrate.sol",
  "abi": [
    {
      "inputs": [],
      "name": "useDodoSwapV1",
      "outputs": [],
      "stateMutability": "nonpayable",
      "type": "function"
    },
    {
      "inputs": [
        {
          "internalType": "address",
          "name": "fromToken",
          "type": "address"
        },
        {
          "internalType": "address",
          "name": "toToken",
          "type": "address"
        },
        {
          "internalType": "uint256",
          "name": "fromTokenAmount",
          "type": "uint256"
        },
        {
          "internalType": "address",
          "name": "dodoV2Pool",
          "type": "address"
        }
      ],
      "name": "useDodoSwapV2",
      "outputs": [],
      "stateMutability": "nonpayable",
      "type": "function"
    }
  ],
  "bytecode": "0x608060405234801561001057600080fd5b506110c0806100206000396000f3fe608060405234801561001057600080fd5b50600436106100365760003560e01c806325765d921461003b5780636a7b076814610045575b600080fd5b610043610058565b005b610043610053366004610ae2565b61035d565b6040516323b872dd60e01b815273be60d4c4250438344bec816ec2dec99925deb4c7907355d398326f99059ff775485246999027b31979559073e9e7cea3dedca5984780bafc599bd69add087d5690670de0b6b3a764000090600190730f859706aee7fcf61d5a8939e8cb9dbb6c1eda339085906323b872dd906100e490339030908890600401610da5565b602060405180830381600087803b1580156100fe57600080fd5b505af1158015610112573d6000803e3d6000fd5b505050506040513d601f19601f820116820180604052508101906101369190610b43565b5060405163ca19ebd960e01b81526000906001600160a01b0383169063ca19ebd990610168908a908890600401610e81565b60206040518083038186803b15801561018057600080fd5b505afa158015610194573d6000803e3d6000fd5b505050506040513d601f19601f820116820180604052508101906101b89190610b61565b905060006101db60646101d56101ce8783610fb1565b8590610606565b9061061b565b6040805160018082528183019092529192506000919060208083019080368337019050509050888160008151811061022357634e487b7160e01b600052603260045260246000fd5b6001600160a01b03909216602092830291909101909101526001600061024b42610258610f66565b905073a128ba44b2738a558a1fdc06d6303d52d3cef8c161026d8b828b610627565b6000738f8dd7db1bda5ed3da8c9daf3bfa471c12d5848690506000816001600160a01b0316630dd4ebd98e8e8e8b8b8b60008c6040518963ffffffff1660e01b81526004016102c3989796959493929190610e4b565b602060405180830381600087803b1580156102dd57600080fd5b505af11580156102f1573d6000803e3d6000fd5b505050506040513d601f19601f820116820180604052508101906103159190610b61565b9050610339816040518060600160405280602f815260200161105c602f91396106e9565b61034d6001600160a01b038d163383610732565b5050505050505050505050505050565b604080518082018252601081526f1a5b9a5d1a585b0818dbdb9d1c9858dd60821b602082015290516370a0823160e01b815260019161040a916001600160a01b038816906370a08231906103b5903090600401610d7c565b60206040518083038186803b1580156103cd57600080fd5b505afa1580156103e1573d6000803e3d6000fd5b505050506040513d601f19601f820116820180604052508101906104059190610b61565b61078d565b604051633cd0243b60e11b81526000906001600160a01b038416906379a048769061043b9033908890600401610e81565b604080518083038186803b15801561045257600080fd5b505afa158015610466573d6000803e3d6000fd5b505050506040513d601f19601f8201168201806040525081019061048a9190610b7f565b509050610496816107d2565b60006104aa60646101d56101ce8683610fb1565b90506104b5816107d2565b6040805160018082528183019092526000916020808301908036833701905050905084816000815181106104f957634e487b7160e01b600052603260045260246000fd5b6001600160a01b03909216602092830291909101909101526001600061052142610258610f66565b9050736d310348d5c12009854dfcf72e0df9027e8cb4f46105438b828b610627565b600073a222e6a71d1a1dd5f279805fbe38d5329c1d0e7090506000816001600160a01b031663f87dc1b78e8e8e60018b8b60008c6040518963ffffffff1660e01b815260040161059a989796959493929190610dcd565b602060405180830381600087803b1580156105b457600080fd5b505af11580156105c8573d6000803e3d6000fd5b505050506040513d601f19601f820116820180604052508101906105ec9190610b61565b90506105f7816107d2565b50505050505050505050505050565b60006106128284610f92565b90505b92915050565b60006106128284610f7e565b604051636eb1769f60e11b81526000906001600160a01b0385169063dd62ed3e906106589030908790600401610d8a565b60206040518083038186803b15801561067057600080fd5b505afa158015610684573d6000803e3d6000fd5b505050506040513d601f19601f820116820180604052508101906106a89190610b61565b9050818110156106e35780156106cd576106cd6001600160a01b038516846000610818565b6106e36001600160a01b03851684600019610818565b50505050565b61072e82826040516024016106ff929190610f46565b60408051601f198184030181529190526020810180516001600160e01b031663643fd0df60e01b1790526108e4565b5050565b6107888363a9059cbb60e01b8484604051602401610751929190610e81565b60408051601f198184030181529190526020810180516001600160e01b03166001600160e01b031990931692909217909152610905565b505050565b61072e82826040516024016107a3929190610ead565b60408051601f198184030181529190526020810180516001600160e01b0316632d839cb360e21b1790526108e4565b610815816040516024016107e69190610f38565b60408051601f198184030181529190526020810180516001600160e01b031663f82c50f160e01b1790526108e4565b50565b8015806108a05750604051636eb1769f60e11b81526001600160a01b0384169063dd62ed3e9061084e9030908690600401610d8a565b60206040518083038186803b15801561086657600080fd5b505afa15801561087a573d6000803e3d6000fd5b505050506040513d601f19601f8201168201806040525081019061089e9190610b61565b155b6108c55760405162461bcd60e51b81526004016108bc90610f28565b60405180910390fd5b6107888363095ea7b360e01b8484604051602401610751929190610e81565b80516a636f6e736f6c652e6c6f67602083016000808483855afa5050505050565b600061095a826040518060400160405280602081526020017f5361666545524332303a206c6f772d6c6576656c2063616c6c206661696c6564815250856001600160a01b03166109949092919063ffffffff16565b80519091501561078857808060200190518101906109789190610b43565b6107885760405162461bcd60e51b81526004016108bc90610f18565b60606109a384846000856109ad565b90505b9392505050565b6060824710156109cf5760405162461bcd60e51b81526004016108bc90610ecd565b600080866001600160a01b031685876040516109eb9190610d70565b60006040518083038185875af1925050503d8060008114610a28576040519150601f19603f3d011682016040523d82523d6000602084013e610a2d565b606091505b5091509150610a3e87838387610a4b565b925050505b949350505050565b60608315610a87578251610a80576001600160a01b0385163b610a805760405162461bcd60e51b81526004016108bc90610edd565b5081610a43565b610a438383815115610a9c5781518083602001fd5b8060405162461bcd60e51b81526004016108bc9190610e9c565b803561061581611039565b80516106158161104d565b803561061581611055565b805161061581611055565b60008060008060808587031215610af857600080fd5b6000610b048787610ab6565b9450506020610b1587828801610ab6565b9350506040610b2687828801610acc565b9250506060610b3787828801610ab6565b91505092959194509250565b600060208284031215610b5557600080fd5b6000610a438484610ac1565b600060208284031215610b7357600080fd5b6000610a438484610ad7565b60008060408385031215610b9257600080fd5b6000610b9e8585610ad7565b9250506020610baf85828601610ad7565b9150509250929050565b6000610bc58383610bcd565b505060200190565b610bd681610fc8565b82525050565b6000610be6825190565b80845260209384019383018060005b83811015610c1a578151610c098882610bb9565b975060208301925050600101610bf5565b509495945050505050565b801515610bd6565b6000610c37825190565b610c45818560208601610fe1565b9290920192915050565b610bd681610fd9565b6000610c62825190565b808452602084019350610c79818560208601610fe1565b601f01601f19169290920192915050565b602681526000602082017f416464726573733a20696e73756666696369656e742062616c616e636520666f8152651c8818d85b1b60d21b602082015291505b5060400190565b602a81526000602082017f5361666545524332303a204552433230206f7065726174696f6e20646964206e8152691bdd081cdd58d8d9595960b21b60208201529150610cc9565b603681526000602082017f5361666545524332303a20617070726f76652066726f6d206e6f6e2d7a65726f81527520746f206e6f6e2d7a65726f20616c6c6f77616e636560501b60208201529150610cc9565b80610bd6565b60006109a68284610c2d565b602081016106158284610bcd565b60408101610d988285610bcd565b6109a66020830184610bcd565b60608101610db38286610bcd565b610dc06020830185610bcd565b610a436040830184610d6a565b6101008101610ddc828b610bcd565b610de9602083018a610bcd565b610df66040830189610d6a565b610e036060830188610c4f565b8181036080830152610e158187610bdc565b9050610e2460a0830186610d6a565b610e3160c0830185610c25565b610e3e60e0830184610d6a565b9998505050505050505050565b6101008101610e5a828b610bcd565b610e67602083018a610bcd565b610e746040830189610d6a565b610e036060830188610d6a565b60408101610e8f8285610bcd565b6109a66020830184610d6a565b602080825281016106128184610c58565b60408082528101610ebe8185610c58565b90506109a66020830184610d6a565b6020808252810161061581610c8a565b6020808252810161061581601d81527f416464726573733a2063616c6c20746f206e6f6e2d636f6e7472616374000000602082015260400190565b6020808252810161061581610cd0565b6020808252810161061581610d17565b602081016106158284610d6a565b60408101610f548285610d6a565b81810360208301526109a38184610c58565b60008219821115610f7957610f7961100d565b500190565b600082610f8d57610f8d611023565b500490565b6000816000190483118215151615610fac57610fac61100d565b500290565b600082821015610fc357610fc361100d565b500390565b60006001600160a01b038216610615565b600081610615565b60005b83811015610ffc578181015183820152602001610fe4565b838111156106e35750506000910152565b634e487b7160e01b600052601160045260246000fd5b634e487b7160e01b600052601260045260246000fd5b61104281610fc8565b811461081557600080fd5b801515611042565b8061104256fe72657475726e616d6f756e745f5f5f5f5f5f5f5f5f5f5f5f5f5f5f5f5f5f5f5f5f5f5f5f5f5f5f5f5f5f5f5f5f5f5fa26469706673582212203a6f24a3d46e3d650f9494937b4c725814c604282797242e6472977ceb3e243764736f6c63430008040033",
  "linkReferences": {},
  "deployedLinkReferences": {}
}