{
  "_format": "hh-sol-artifact-1",
  "contractName": "DODOFlashloan",
  "sourceName": "contracts/DODOFlashloan.sol",
  "abi": [
    {
      "anonymous": false,
      "inputs": [
        {
          "indexed": false,
          "internalType": "address",
          "name": "token",
          "type": "address"
        },
        {
          "indexed": false,
          "internalType": "uint256",
          "name": "amount",
          "type": "uint256"
        }
      ],
      "name": "checkBorrowedAmount",
      "type": "event"
    },
    {
      "anonymous": false,
      "inputs": [
        {
          "indexed": false,
          "internalType": "address",
          "name": "token",
          "type": "address"
        },
        {
          "indexed": false,
          "internalType": "uint256",
          "name": "amount",
          "type": "uint256"
        }
      ],
      "name": "payBackLoan",
      "type": "event"
    },
    {
      "inputs": [
        {
          "internalType": "address",
          "name": "sender",
          "type": "address"
        },
        {
          "internalType": "uint256",
          "name": "baseAmount",
          "type": "uint256"
        },
        {
          "internalType": "uint256",
          "name": "quoteAmount",
          "type": "uint256"
        },
        {
          "internalType": "bytes",
          "name": "data",
          "type": "bytes"
        }
      ],
      "name": "DPPFlashLoanCall",
      "outputs": [],
      "stateMutability": "nonpayable",
      "type": "function"
    },
    {
      "inputs": [
        {
          "internalType": "address",
          "name": "sender",
          "type": "address"
        },
        {
          "internalType": "uint256",
          "name": "baseAmount",
          "type": "uint256"
        },
        {
          "internalType": "uint256",
          "name": "quoteAmount",
          "type": "uint256"
        },
        {
          "internalType": "bytes",
          "name": "data",
          "type": "bytes"
        }
      ],
      "name": "DSPFlashLoanCall",
      "outputs": [],
      "stateMutability": "nonpayable",
      "type": "function"
    },
    {
      "inputs": [
        {
          "internalType": "address",
          "name": "sender",
          "type": "address"
        },
        {
          "internalType": "uint256",
          "name": "baseAmount",
          "type": "uint256"
        },
        {
          "internalType": "uint256",
          "name": "quoteAmount",
          "type": "uint256"
        },
        {
          "internalType": "bytes",
          "name": "data",
          "type": "bytes"
        }
      ],
      "name": "DVMFlashLoanCall",
      "outputs": [],
      "stateMutability": "nonpayable",
      "type": "function"
    },
    {
      "inputs": [
        {
          "internalType": "address",
          "name": "flashLoanPool",
          "type": "address"
        },
        {
          "internalType": "uint256",
          "name": "loanAmount",
          "type": "uint256"
        },
        {
          "internalType": "address",
          "name": "loanToken",
          "type": "address"
        }
      ],
      "name": "dodoFlashLoan",
      "outputs": [],
      "stateMutability": "nonpayable",
      "type": "function"
    }
  ],
  "bytecode": "0x608060405234801561001057600080fd5b50610af4806100206000396000f3fe608060405234801561001057600080fd5b506004361061004c5760003560e01c80637ed1f1dd14610051578063d5b9979714610051578063eb2021c314610051578063ed97c93814610066575b600080fd5b61006461005f366004610785565b610079565b005b610064610074366004610742565b61008d565b610086858585858561021a565b5050505050565b60008382846040516020016100a49392919061089d565b60405160208183030381529060405290506000846001600160a01b0316634a248d2a6040518163ffffffff1660e01b815260040160206040518083038186803b1580156100f057600080fd5b505afa158015610104573d6000803e3d6000fd5b505050506040513d601f19601f8201168201806040525081019061012891906106cf565b9050826001600160a01b0316816001600160a01b031614156101ae57604051633429253960e21b81526001600160a01b0386169063d0a494e490610177908790600090309088906004016109ee565b600060405180830381600087803b15801561019157600080fd5b505af11580156101a5573d6000803e3d6000fd5b50505050610086565b604051633429253960e21b81526001600160a01b0386169063d0a494e4906101e1906000908890309088906004016108e7565b600060405180830381600087803b1580156101fb57600080fd5b505af115801561020f573d6000803e3d6000fd5b505050505050505050565b6000808061022a848601866106f5565b919450925090506001600160a01b038816301480156102515750336001600160a01b038416145b6102765760405162461bcd60e51b815260040161026d906109bd565b60405180910390fd5b6040516370a0823160e01b8152610331906001600160a01b038416906370a08231906102a690309060040161088f565b60206040518083038186803b1580156102be57600080fd5b505afa1580156102d2573d6000803e3d6000fd5b505050506040513d601f19601f820116820180604052508101906102f69190610821565b6040518060400160405280601b81526020017f7468697320616d6f756e7420206861766520746f2072657475726e0000000000815250610554565b6040516370a0823160e01b81526001600160a01b038316906370a082319061035d90309060040161088f565b60206040518083038186803b15801561037557600080fd5b505afa158015610389573d6000803e3d6000fd5b505050506040513d601f19601f820116820180604052508101906103ad9190610821565b81146103cb5760405162461bcd60e51b815260040161026d9061095c565b7f3a227357a857ce0c0e91741d8eccc8993feba4b2722acb7260125b30ce21413682826040516103fc9291906108c5565b60405180910390a1670de0b6b3a76400008111156104525760408051808201909152600c81526b165bdd48189bdc9c9bddd95960a21b60208201526104529061044d670de0b6b3a764000084610a29565b61059d565b60405163a9059cbb60e01b81526001600160a01b0383169063a9059cbb9061048090869085906004016108c5565b602060405180830381600087803b15801561049a57600080fd5b505af11580156104ae573d6000803e3d6000fd5b505050506040513d601f19601f820116820180604052508101906104d29190610803565b507fdb1cb55863e8c14b76121e1c7a1dd384bbf404face056dcd7f4ed8d9daa716da82826040516105049291906108c5565b60405180910390a161054a6040518060400160405280601f81526020017f596f75207375636365737366756c6c792072657475726e6564206c6f616e21008152506105e2565b5050505050505050565b610599828260405160240161056a929190610a09565b60408051601f198184030181529190526020810180516001600160e01b031663643fd0df60e01b179052610628565b5050565b61059982826040516024016105b392919061093c565b60408051601f198184030181529190526020810180516001600160e01b0316632d839cb360e21b179052610628565b610625816040516024016105f6919061092b565b60408051601f198184030181529190526020810180516001600160e01b031663104c13eb60e21b179052610628565b50565b80516a636f6e736f6c652e6c6f67602083016000808483855afa5050505050565b803561065481610a9c565b92915050565b805161065481610a9c565b805161065481610ab0565b60008083601f84011261068257600080fd5b50813567ffffffffffffffff81111561069a57600080fd5b6020830191508360018202830111156106b257600080fd5b9250929050565b803561065481610ab8565b805161065481610ab8565b6000602082840312156106e157600080fd5b60006106ed848461065a565b949350505050565b60008060006060848603121561070a57600080fd5b60006107168686610649565b935050602061072786828701610649565b9250506040610738868287016106b9565b9150509250925092565b60008060006060848603121561075757600080fd5b60006107638686610649565b9350506020610774868287016106b9565b925050604061073886828701610649565b60008060008060006080868803121561079d57600080fd5b60006107a98888610649565b95505060206107ba888289016106b9565b94505060406107cb888289016106b9565b935050606086013567ffffffffffffffff8111156107e857600080fd5b6107f488828901610670565b92509250509295509295909350565b60006020828403121561081557600080fd5b60006106ed8484610665565b60006020828403121561083357600080fd5b60006106ed84846106c4565b61084881610a3d565b82525050565b6000610858825190565b80845260208401935061086f818560208601610a56565b601f01601f19169290920192915050565b61084881610a4e565b80610848565b60208101610654828461083f565b606081016108ab828661083f565b6108b8602083018561083f565b6106ed6040830184610889565b604081016108d3828561083f565b6108e06020830184610889565b9392505050565b608081016108f58287610880565b6109026020830186610889565b61090f604083018561083f565b8181036060830152610921818461084e565b9695505050505050565b602080825281016108e0818461084e565b6040808252810161094d818561084e565b90506108e06020830184610889565b6020808252810161065481603a81527f546865206c6f616e416d6f756e7420616e64207468652063757272656e74206260208201527f616c616e63652073686f756c64206265207468652073616d6521000000000000604082015260600190565b6020808252810161065481601381527212105391131157d1931054d217d39153925151606a1b602082015260400190565b608081016109fc8287610889565b6109026020830186610880565b60408101610a178285610889565b81810360208301526106ed818461084e565b600082610a3857610a38610a86565b500490565b60006001600160a01b038216610654565b600081610654565b60005b83811015610a71578181015183820152602001610a59565b83811115610a80576000848401525b50505050565b634e487b7160e01b600052601260045260246000fd5b610aa581610a3d565b811461062557600080fd5b801515610aa5565b80610aa556fea264697066735822122081765306a9757a5826c819924fb0b6975cec7f42489c6b8db2e5b4d2996293c064736f6c63430008040033",
  "linkReferences": {},
  "deployedLinkReferences": {}
}